{
  "_format": "hh-sol-artifact-1",
  "contractName": "NFT",
  "sourceName": "contracts/NFT.sol",
  "abi": [
    {
      "inputs": [
        {
          "internalType": "address",
          "name": "_marketplaceAddress",
          "type": "address"
        }
      ],
      "stateMutability": "nonpayable",
      "type": "constructor"
    },
    {
      "anonymous": false,
      "inputs": [
        {
          "indexed": true,
          "internalType": "address",
          "name": "owner",
          "type": "address"
        },
        {
          "indexed": true,
          "internalType": "address",
          "name": "approved",
          "type": "address"
        },
        {
          "indexed": true,
          "internalType": "uint256",
          "name": "tokenId",
          "type": "uint256"
        }
      ],
      "name": "Approval",
      "type": "event"
    },
    {
      "anonymous": false,
      "inputs": [
        {
          "indexed": true,
          "internalType": "address",
          "name": "owner",
          "type": "address"
        },
        {
          "indexed": true,
          "internalType": "address",
          "name": "operator",
          "type": "address"
        },
        {
          "indexed": false,
          "internalType": "bool",
          "name": "approved",
          "type": "bool"
        }
      ],
      "name": "ApprovalForAll",
      "type": "event"
    },
    {
      "anonymous": false,
      "inputs": [
        {
          "indexed": true,
          "internalType": "uint256",
          "name": "tokenId",
          "type": "uint256"
        },
        {
          "indexed": false,
          "internalType": "string",
          "name": "tokenURI",
          "type": "string"
        },
        {
          "indexed": false,
          "internalType": "address",
          "name": "marketplaceAddress",
          "type": "address"
        }
      ],
      "name": "TokenMinted",
      "type": "event"
    },
    {
      "anonymous": false,
      "inputs": [
        {
          "indexed": true,
          "internalType": "address",
          "name": "from",
          "type": "address"
        },
        {
          "indexed": true,
          "internalType": "address",
          "name": "to",
          "type": "address"
        },
        {
          "indexed": true,
          "internalType": "uint256",
          "name": "tokenId",
          "type": "uint256"
        }
      ],
      "name": "Transfer",
      "type": "event"
    },
    {
      "inputs": [
        {
          "internalType": "address",
          "name": "to",
          "type": "address"
        },
        {
          "internalType": "uint256",
          "name": "tokenId",
          "type": "uint256"
        }
      ],
      "name": "approve",
      "outputs": [],
      "stateMutability": "nonpayable",
      "type": "function"
    },
    {
      "inputs": [
        {
          "internalType": "address",
          "name": "owner",
          "type": "address"
        }
      ],
      "name": "balanceOf",
      "outputs": [
        {
          "internalType": "uint256",
          "name": "",
          "type": "uint256"
        }
      ],
      "stateMutability": "view",
      "type": "function"
    },
    {
      "inputs": [
        {
          "internalType": "uint256",
          "name": "tokenId",
          "type": "uint256"
        }
      ],
      "name": "getApproved",
      "outputs": [
        {
          "internalType": "address",
          "name": "",
          "type": "address"
        }
      ],
      "stateMutability": "view",
      "type": "function"
    },
    {
      "inputs": [
        {
          "internalType": "uint256",
          "name": "tokenId",
          "type": "uint256"
        }
      ],
      "name": "getTokenCreatorById",
      "outputs": [
        {
          "internalType": "address",
          "name": "",
          "type": "address"
        }
      ],
      "stateMutability": "view",
      "type": "function"
    },
    {
      "inputs": [],
      "name": "getTokensCreatedByMe",
      "outputs": [
        {
          "internalType": "uint256[]",
          "name": "",
          "type": "uint256[]"
        }
      ],
      "stateMutability": "view",
      "type": "function"
    },
    {
      "inputs": [],
      "name": "getTokensOwnedByMe",
      "outputs": [
        {
          "internalType": "uint256[]",
          "name": "",
          "type": "uint256[]"
        }
      ],
      "stateMutability": "view",
      "type": "function"
    },
    {
      "inputs": [
        {
          "internalType": "address",
          "name": "owner",
          "type": "address"
        },
        {
          "internalType": "address",
          "name": "operator",
          "type": "address"
        }
      ],
      "name": "isApprovedForAll",
      "outputs": [
        {
          "internalType": "bool",
          "name": "",
          "type": "bool"
        }
      ],
      "stateMutability": "view",
      "type": "function"
    },
    {
      "inputs": [
        {
          "internalType": "string",
          "name": "tokenURI",
          "type": "string"
        }
      ],
      "name": "mintToken",
      "outputs": [
        {
          "internalType": "uint256",
          "name": "",
          "type": "uint256"
        }
      ],
      "stateMutability": "nonpayable",
      "type": "function"
    },
    {
      "inputs": [],
      "name": "name",
      "outputs": [
        {
          "internalType": "string",
          "name": "",
          "type": "string"
        }
      ],
      "stateMutability": "view",
      "type": "function"
    },
    {
      "inputs": [
        {
          "internalType": "uint256",
          "name": "tokenId",
          "type": "uint256"
        }
      ],
      "name": "ownerOf",
      "outputs": [
        {
          "internalType": "address",
          "name": "",
          "type": "address"
        }
      ],
      "stateMutability": "view",
      "type": "function"
    },
    {
      "inputs": [
        {
          "internalType": "address",
          "name": "from",
          "type": "address"
        },
        {
          "internalType": "address",
          "name": "to",
          "type": "address"
        },
        {
          "internalType": "uint256",
          "name": "tokenId",
          "type": "uint256"
        }
      ],
      "name": "safeTransferFrom",
      "outputs": [],
      "stateMutability": "nonpayable",
      "type": "function"
    },
    {
      "inputs": [
        {
          "internalType": "address",
          "name": "from",
          "type": "address"
        },
        {
          "internalType": "address",
          "name": "to",
          "type": "address"
        },
        {
          "internalType": "uint256",
          "name": "tokenId",
          "type": "uint256"
        },
        {
          "internalType": "bytes",
          "name": "data",
          "type": "bytes"
        }
      ],
      "name": "safeTransferFrom",
      "outputs": [],
      "stateMutability": "nonpayable",
      "type": "function"
    },
    {
      "inputs": [
        {
          "internalType": "address",
          "name": "operator",
          "type": "address"
        },
        {
          "internalType": "bool",
          "name": "approved",
          "type": "bool"
        }
      ],
      "name": "setApprovalForAll",
      "outputs": [],
      "stateMutability": "nonpayable",
      "type": "function"
    },
    {
      "inputs": [
        {
          "internalType": "bytes4",
          "name": "interfaceId",
          "type": "bytes4"
        }
      ],
      "name": "supportsInterface",
      "outputs": [
        {
          "internalType": "bool",
          "name": "",
          "type": "bool"
        }
      ],
      "stateMutability": "view",
      "type": "function"
    },
    {
      "inputs": [],
      "name": "symbol",
      "outputs": [
        {
          "internalType": "string",
          "name": "",
          "type": "string"
        }
      ],
      "stateMutability": "view",
      "type": "function"
    },
    {
      "inputs": [
        {
          "internalType": "uint256",
          "name": "tokenId",
          "type": "uint256"
        }
      ],
      "name": "tokenURI",
      "outputs": [
        {
          "internalType": "string",
          "name": "",
          "type": "string"
        }
      ],
      "stateMutability": "view",
      "type": "function"
    },
    {
      "inputs": [
        {
          "internalType": "address",
          "name": "from",
          "type": "address"
        },
        {
          "internalType": "address",
          "name": "to",
          "type": "address"
        },
        {
          "internalType": "uint256",
          "name": "tokenId",
          "type": "uint256"
        }
      ],
      "name": "transferFrom",
      "outputs": [],
      "stateMutability": "nonpayable",
      "type": "function"
    }
  ],
  "bytecode": "0x60806040523480156200001157600080fd5b5060405162003179380380620031798339818101604052810190620000379190620001e6565b6040518060400160405280600681526020017f47616c62727900000000000000000000000000000000000000000000000000008152506040518060400160405280600381526020017f474c4200000000000000000000000000000000000000000000000000000000008152508160009080519060200190620000bb9291906200011f565b508060019080519060200190620000d49291906200011f565b50505080600860006101000a81548173ffffffffffffffffffffffffffffffffffffffff021916908373ffffffffffffffffffffffffffffffffffffffff16021790555050620002c5565b8280546200012d9062000246565b90600052602060002090601f0160209004810192826200015157600085556200019d565b82601f106200016c57805160ff19168380011785556200019d565b828001600101855582156200019d579182015b828111156200019c5782518255916020019190600101906200017f565b5b509050620001ac9190620001b0565b5090565b5b80821115620001cb576000816000905550600101620001b1565b5090565b600081519050620001e081620002ab565b92915050565b600060208284031215620001f957600080fd5b60006200020984828501620001cf565b91505092915050565b60006200021f8262000226565b9050919050565b600073ffffffffffffffffffffffffffffffffffffffff82169050919050565b600060028204905060018216806200025f57607f821691505b602082108114156200027657620002756200027c565b5b50919050565b7f4e487b7100000000000000000000000000000000000000000000000000000000600052602260045260246000fd5b620002b68162000212565b8114620002c257600080fd5b50565b612ea480620002d56000396000f3fe608060405234801561001057600080fd5b506004361061010b5760003560e01c80635ba37742116100a257806395d89b411161007157806395d89b41146102de578063a22cb465146102fc578063b88d4fde14610318578063c87b56dd14610334578063e985e9c5146103645761010b565b80635ba37742146102305780636352211e1461024e57806370a082311461027e578063867d3397146102ae5761010b565b80630a989d9c116100de5780630a989d9c146101aa57806323b872dd146101c857806333eba49a146101e457806342842e0e146102145761010b565b806301ffc9a71461011057806306fdde0314610140578063081812fc1461015e578063095ea7b31461018e575b600080fd5b61012a6004803603810190610125919061206e565b610394565b60405161013791906124d0565b60405180910390f35b610148610476565b60405161015591906124eb565b60405180910390f35b61017860048036038101906101739190612101565b610508565b6040516101859190612447565b60405180910390f35b6101a860048036038101906101a39190612032565b61054e565b005b6101b2610666565b6040516101bf91906124ae565b60405180910390f35b6101e260048036038101906101dd9190611f2c565b6107c9565b005b6101fe60048036038101906101f991906120c0565b610829565b60405161020b91906126bd565b60405180910390f35b61022e60048036038101906102299190611f2c565b61093b565b005b61023861095b565b60405161024591906124ae565b60405180910390f35b61026860048036038101906102639190612101565b610b8a565b6040516102759190612447565b60405180910390f35b61029860048036038101906102939190611ec7565b610c3c565b6040516102a591906126bd565b60405180910390f35b6102c860048036038101906102c39190612101565b610cf4565b6040516102d59190612447565b60405180910390f35b6102e6610d31565b6040516102f391906124eb565b60405180910390f35b61031660048036038101906103119190611ff6565b610dc3565b005b610332600480360381019061032d9190611f7b565b610dd9565b005b61034e60048036038101906103499190612101565b610e3b565b60405161035b91906124eb565b60405180910390f35b61037e60048036038101906103799190611ef0565b610f4e565b60405161038b91906124d0565b60405180910390f35b60007f80ac58cd000000000000000000000000000000000000000000000000000000007bffffffffffffffffffffffffffffffffffffffffffffffffffffffff1916827bffffffffffffffffffffffffffffffffffffffffffffffffffffffff1916148061045f57507f5b5e139f000000000000000000000000000000000000000000000000000000007bffffffffffffffffffffffffffffffffffffffffffffffffffffffff1916827bffffffffffffffffffffffffffffffffffffffffffffffffffffffff1916145b8061046f575061046e82610fe2565b5b9050919050565b6060600080546104859061294c565b80601f01602080910402602001604051908101604052809291908181526020018280546104b19061294c565b80156104fe5780601f106104d3576101008083540402835291602001916104fe565b820191906000526020600020905b8154815290600101906020018083116104e157829003601f168201915b5050505050905090565b60006105138261104c565b6004600083815260200190815260200160002060009054906101000a900473ffffffffffffffffffffffffffffffffffffffff169050919050565b600061055982610b8a565b90508073ffffffffffffffffffffffffffffffffffffffff168373ffffffffffffffffffffffffffffffffffffffff1614156105ca576040517f08c379a00000000000000000000000000000000000000000000000000000000081526004016105c19061267d565b60405180910390fd5b8073ffffffffffffffffffffffffffffffffffffffff166105e9611097565b73ffffffffffffffffffffffffffffffffffffffff161480610618575061061781610612611097565b610f4e565b5b610657576040517f08c379a000000000000000000000000000000000000000000000000000000000815260040161064e9061261d565b60405180910390fd5b610661838361109f565b505050565b606060006106746007611158565b9050600061068133610c3c565b905060008167ffffffffffffffff8111156106c5577f4e487b7100000000000000000000000000000000000000000000000000000000600052604160045260246000fd5b6040519080825280602002602001820160405280156106f35781602001602082028036833780820191505090505b5090506000805b848110156107be57600060018261071191906127db565b90503373ffffffffffffffffffffffffffffffffffffffff1661073382610b8a565b73ffffffffffffffffffffffffffffffffffffffff161461075457506107ab565b8084848151811061078e577f4e487b7100000000000000000000000000000000000000000000000000000000600052603260045260246000fd5b6020026020010181815250506001836107a791906127db565b9250505b80806107b6906129af565b9150506106fa565b508194505050505090565b6107da6107d4611097565b82611166565b610819576040517f08c379a00000000000000000000000000000000000000000000000000000000081526004016108109061269d565b60405180910390fd5b6108248383836111fb565b505050565b60006108356007611462565b60006108416007611158565b905061084d3382611478565b336009600083815260200190815260200160002060006101000a81548173ffffffffffffffffffffffffffffffffffffffff021916908373ffffffffffffffffffffffffffffffffffffffff1602179055506108a98184611652565b6108d6600860009054906101000a900473ffffffffffffffffffffffffffffffffffffffff166001610dc3565b807f9ef9d09a98563c827f651a028105395cc17f94ef23eb26b70d241439386a62f484600860009054906101000a900473ffffffffffffffffffffffffffffffffffffffff1660405161092a92919061250d565b60405180910390a280915050919050565b61095683838360405180602001604052806000815250610dd9565b505050565b606060006109696007611158565b90506000805b82811015610a1857600060018261098691906127db565b90503373ffffffffffffffffffffffffffffffffffffffff166009600083815260200190815260200160002060009054906101000a900473ffffffffffffffffffffffffffffffffffffffff1673ffffffffffffffffffffffffffffffffffffffff16146109f45750610a05565b600183610a0191906127db565b9250505b8080610a10906129af565b91505061096f565b5060008167ffffffffffffffff811115610a5b577f4e487b7100000000000000000000000000000000000000000000000000000000600052604160045260246000fd5b604051908082528060200260200182016040528015610a895781602001602082028036833780820191505090505b5090506000805b84811015610b7f576000600182610aa791906127db565b90503373ffffffffffffffffffffffffffffffffffffffff166009600083815260200190815260200160002060009054906101000a900473ffffffffffffffffffffffffffffffffffffffff1673ffffffffffffffffffffffffffffffffffffffff1614610b155750610b6c565b80848481518110610b4f577f4e487b7100000000000000000000000000000000000000000000000000000000600052603260045260246000fd5b602002602001018181525050600183610b6891906127db565b9250505b8080610b77906129af565b915050610a90565b508194505050505090565b6000806002600084815260200190815260200160002060009054906101000a900473ffffffffffffffffffffffffffffffffffffffff169050600073ffffffffffffffffffffffffffffffffffffffff168173ffffffffffffffffffffffffffffffffffffffff161415610c33576040517f08c379a0000000000000000000000000000000000000000000000000000000008152600401610c2a9061265d565b60405180910390fd5b80915050919050565b60008073ffffffffffffffffffffffffffffffffffffffff168273ffffffffffffffffffffffffffffffffffffffff161415610cad576040517f08c379a0000000000000000000000000000000000000000000000000000000008152600401610ca4906125dd565b60405180910390fd5b600360008373ffffffffffffffffffffffffffffffffffffffff1673ffffffffffffffffffffffffffffffffffffffff168152602001908152602001600020549050919050565b60006009600083815260200190815260200160002060009054906101000a900473ffffffffffffffffffffffffffffffffffffffff169050919050565b606060018054610d409061294c565b80601f0160208091040260200160405190810160405280929190818152602001828054610d6c9061294c565b8015610db95780601f10610d8e57610100808354040283529160200191610db9565b820191906000526020600020905b815481529060010190602001808311610d9c57829003601f168201915b5050505050905090565b610dd5610dce611097565b83836116c6565b5050565b610dea610de4611097565b83611166565b610e29576040517f08c379a0000000000000000000000000000000000000000000000000000000008152600401610e209061269d565b60405180910390fd5b610e3584848484611833565b50505050565b6060610e468261104c565b6000600660008481526020019081526020016000208054610e669061294c565b80601f0160208091040260200160405190810160405280929190818152602001828054610e929061294c565b8015610edf5780601f10610eb457610100808354040283529160200191610edf565b820191906000526020600020905b815481529060010190602001808311610ec257829003601f168201915b505050505090506000610ef061188f565b9050600081511415610f06578192505050610f49565b600082511115610f3b578082604051602001610f23929190612423565b60405160208183030381529060405292505050610f49565b610f44846118a6565b925050505b919050565b6000600560008473ffffffffffffffffffffffffffffffffffffffff1673ffffffffffffffffffffffffffffffffffffffff16815260200190815260200160002060008373ffffffffffffffffffffffffffffffffffffffff1673ffffffffffffffffffffffffffffffffffffffff16815260200190815260200160002060009054906101000a900460ff16905092915050565b60007f01ffc9a7000000000000000000000000000000000000000000000000000000007bffffffffffffffffffffffffffffffffffffffffffffffffffffffff1916827bffffffffffffffffffffffffffffffffffffffffffffffffffffffff1916149050919050565b6110558161190e565b611094576040517f08c379a000000000000000000000000000000000000000000000000000000000815260040161108b9061265d565b60405180910390fd5b50565b600033905090565b816004600083815260200190815260200160002060006101000a81548173ffffffffffffffffffffffffffffffffffffffff021916908373ffffffffffffffffffffffffffffffffffffffff160217905550808273ffffffffffffffffffffffffffffffffffffffff1661111283610b8a565b73ffffffffffffffffffffffffffffffffffffffff167f8c5be1e5ebec7d5bd14f71427d1e84f3dd0314c0f7b2291e5b200ac8c7c3b92560405160405180910390a45050565b600081600001549050919050565b60008061117283610b8a565b90508073ffffffffffffffffffffffffffffffffffffffff168473ffffffffffffffffffffffffffffffffffffffff1614806111b457506111b38185610f4e565b5b806111f257508373ffffffffffffffffffffffffffffffffffffffff166111da84610508565b73ffffffffffffffffffffffffffffffffffffffff16145b91505092915050565b8273ffffffffffffffffffffffffffffffffffffffff1661121b82610b8a565b73ffffffffffffffffffffffffffffffffffffffff1614611271576040517f08c379a00000000000000000000000000000000000000000000000000000000081526004016112689061255d565b60405180910390fd5b600073ffffffffffffffffffffffffffffffffffffffff168273ffffffffffffffffffffffffffffffffffffffff1614156112e1576040517f08c379a00000000000000000000000000000000000000000000000000000000081526004016112d89061259d565b60405180910390fd5b6112ec83838361197a565b6112f760008261109f565b6001600360008573ffffffffffffffffffffffffffffffffffffffff1673ffffffffffffffffffffffffffffffffffffffff16815260200190815260200160002060008282546113479190612862565b925050819055506001600360008473ffffffffffffffffffffffffffffffffffffffff1673ffffffffffffffffffffffffffffffffffffffff168152602001908152602001600020600082825461139e91906127db565b92505081905550816002600083815260200190815260200160002060006101000a81548173ffffffffffffffffffffffffffffffffffffffff021916908373ffffffffffffffffffffffffffffffffffffffff160217905550808273ffffffffffffffffffffffffffffffffffffffff168473ffffffffffffffffffffffffffffffffffffffff167fddf252ad1be2c89b69c2b068fc378daa952ba7f163c4a11628f55a4df523b3ef60405160405180910390a461145d83838361197f565b505050565b6001816000016000828254019250508190555050565b600073ffffffffffffffffffffffffffffffffffffffff168273ffffffffffffffffffffffffffffffffffffffff1614156114e8576040517f08c379a00000000000000000000000000000000000000000000000000000000081526004016114df9061263d565b60405180910390fd5b6114f18161190e565b15611531576040517f08c379a00000000000000000000000000000000000000000000000000000000081526004016115289061257d565b60405180910390fd5b61153d6000838361197a565b6001600360008473ffffffffffffffffffffffffffffffffffffffff1673ffffffffffffffffffffffffffffffffffffffff168152602001908152602001600020600082825461158d91906127db565b92505081905550816002600083815260200190815260200160002060006101000a81548173ffffffffffffffffffffffffffffffffffffffff021916908373ffffffffffffffffffffffffffffffffffffffff160217905550808273ffffffffffffffffffffffffffffffffffffffff16600073ffffffffffffffffffffffffffffffffffffffff167fddf252ad1be2c89b69c2b068fc378daa952ba7f163c4a11628f55a4df523b3ef60405160405180910390a461164e6000838361197f565b5050565b61165b8261190e565b61169a576040517f08c379a0000000000000000000000000000000000000000000000000000000008152600401611691906125fd565b60405180910390fd5b806006600084815260200190815260200160002090805190602001906116c1929190611ceb565b505050565b8173ffffffffffffffffffffffffffffffffffffffff168373ffffffffffffffffffffffffffffffffffffffff161415611735576040517f08c379a000000000000000000000000000000000000000000000000000000000815260040161172c906125bd565b60405180910390fd5b80600560008573ffffffffffffffffffffffffffffffffffffffff1673ffffffffffffffffffffffffffffffffffffffff16815260200190815260200160002060008473ffffffffffffffffffffffffffffffffffffffff1673ffffffffffffffffffffffffffffffffffffffff16815260200190815260200160002060006101000a81548160ff0219169083151502179055508173ffffffffffffffffffffffffffffffffffffffff168373ffffffffffffffffffffffffffffffffffffffff167f17307eab39ab6107e8899845ad3d59bd9653f200f220920489ca2b5937696c318360405161182691906124d0565b60405180910390a3505050565b61183e8484846111fb565b61184a84848484611984565b611889576040517f08c379a00000000000000000000000000000000000000000000000000000000081526004016118809061253d565b60405180910390fd5b50505050565b606060405180602001604052806000815250905090565b60606118b18261104c565b60006118bb61188f565b905060008151116118db5760405180602001604052806000815250611906565b806118e584611b1b565b6040516020016118f6929190612423565b6040516020818303038152906040525b915050919050565b60008073ffffffffffffffffffffffffffffffffffffffff166002600084815260200190815260200160002060009054906101000a900473ffffffffffffffffffffffffffffffffffffffff1673ffffffffffffffffffffffffffffffffffffffff1614159050919050565b505050565b505050565b60006119a58473ffffffffffffffffffffffffffffffffffffffff16611cc8565b15611b0e578373ffffffffffffffffffffffffffffffffffffffff1663150b7a026119ce611097565b8786866040518563ffffffff1660e01b81526004016119f09493929190612462565b602060405180830381600087803b158015611a0a57600080fd5b505af1925050508015611a3b57506040513d601f19601f82011682018060405250810190611a389190612097565b60015b611abe573d8060008114611a6b576040519150601f19603f3d011682016040523d82523d6000602084013e611a70565b606091505b50600081511415611ab6576040517f08c379a0000000000000000000000000000000000000000000000000000000008152600401611aad9061253d565b60405180910390fd5b805181602001fd5b63150b7a0260e01b7bffffffffffffffffffffffffffffffffffffffffffffffffffffffff1916817bffffffffffffffffffffffffffffffffffffffffffffffffffffffff191614915050611b13565b600190505b949350505050565b60606000821415611b63576040518060400160405280600181526020017f30000000000000000000000000000000000000000000000000000000000000008152509050611cc3565b600082905060005b60008214611b95578080611b7e906129af565b915050600a82611b8e9190612831565b9150611b6b565b60008167ffffffffffffffff811115611bd7577f4e487b7100000000000000000000000000000000000000000000000000000000600052604160045260246000fd5b6040519080825280601f01601f191660200182016040528015611c095781602001600182028036833780820191505090505b5090505b60008514611cbc57600182611c229190612862565b9150600a85611c3191906129f8565b6030611c3d91906127db565b60f81b818381518110611c79577f4e487b7100000000000000000000000000000000000000000000000000000000600052603260045260246000fd5b60200101907effffffffffffffffffffffffffffffffffffffffffffffffffffffffffffff1916908160001a905350600a85611cb59190612831565b9450611c0d565b8093505050505b919050565b6000808273ffffffffffffffffffffffffffffffffffffffff163b119050919050565b828054611cf79061294c565b90600052602060002090601f016020900481019282611d195760008555611d60565b82601f10611d3257805160ff1916838001178555611d60565b82800160010185558215611d60579182015b82811115611d5f578251825591602001919060010190611d44565b5b509050611d6d9190611d71565b5090565b5b80821115611d8a576000816000905550600101611d72565b5090565b6000611da1611d9c846126fd565b6126d8565b905082815260208101848484011115611db957600080fd5b611dc484828561290a565b509392505050565b6000611ddf611dda8461272e565b6126d8565b905082815260208101848484011115611df757600080fd5b611e0284828561290a565b509392505050565b600081359050611e1981612e12565b92915050565b600081359050611e2e81612e29565b92915050565b600081359050611e4381612e40565b92915050565b600081519050611e5881612e40565b92915050565b600082601f830112611e6f57600080fd5b8135611e7f848260208601611d8e565b91505092915050565b600082601f830112611e9957600080fd5b8135611ea9848260208601611dcc565b91505092915050565b600081359050611ec181612e57565b92915050565b600060208284031215611ed957600080fd5b6000611ee784828501611e0a565b91505092915050565b60008060408385031215611f0357600080fd5b6000611f1185828601611e0a565b9250506020611f2285828601611e0a565b9150509250929050565b600080600060608486031215611f4157600080fd5b6000611f4f86828701611e0a565b9350506020611f6086828701611e0a565b9250506040611f7186828701611eb2565b9150509250925092565b60008060008060808587031215611f9157600080fd5b6000611f9f87828801611e0a565b9450506020611fb087828801611e0a565b9350506040611fc187828801611eb2565b925050606085013567ffffffffffffffff811115611fde57600080fd5b611fea87828801611e5e565b91505092959194509250565b6000806040838503121561200957600080fd5b600061201785828601611e0a565b925050602061202885828601611e1f565b9150509250929050565b6000806040838503121561204557600080fd5b600061205385828601611e0a565b925050602061206485828601611eb2565b9150509250929050565b60006020828403121561208057600080fd5b600061208e84828501611e34565b91505092915050565b6000602082840312156120a957600080fd5b60006120b784828501611e49565b91505092915050565b6000602082840312156120d257600080fd5b600082013567ffffffffffffffff8111156120ec57600080fd5b6120f884828501611e88565b91505092915050565b60006020828403121561211357600080fd5b600061212184828501611eb2565b91505092915050565b60006121368383612405565b60208301905092915050565b61214b81612896565b82525050565b600061215c8261276f565b612166818561279d565b93506121718361275f565b8060005b838110156121a2578151612189888261212a565b975061219483612790565b925050600181019050612175565b5085935050505092915050565b6121b8816128a8565b82525050565b60006121c98261277a565b6121d381856127ae565b93506121e3818560208601612919565b6121ec81612ae5565b840191505092915050565b600061220282612785565b61220c81856127bf565b935061221c818560208601612919565b61222581612ae5565b840191505092915050565b600061223b82612785565b61224581856127d0565b9350612255818560208601612919565b80840191505092915050565b600061226e6032836127bf565b915061227982612af6565b604082019050919050565b60006122916025836127bf565b915061229c82612b45565b604082019050919050565b60006122b4601c836127bf565b91506122bf82612b94565b602082019050919050565b60006122d76024836127bf565b91506122e282612bbd565b604082019050919050565b60006122fa6019836127bf565b915061230582612c0c565b602082019050919050565b600061231d6029836127bf565b915061232882612c35565b604082019050919050565b6000612340602e836127bf565b915061234b82612c84565b604082019050919050565b6000612363603e836127bf565b915061236e82612cd3565b604082019050919050565b60006123866020836127bf565b915061239182612d22565b602082019050919050565b60006123a96018836127bf565b91506123b482612d4b565b602082019050919050565b60006123cc6021836127bf565b91506123d782612d74565b604082019050919050565b60006123ef602e836127bf565b91506123fa82612dc3565b604082019050919050565b61240e81612900565b82525050565b61241d81612900565b82525050565b600061242f8285612230565b915061243b8284612230565b91508190509392505050565b600060208201905061245c6000830184612142565b92915050565b60006080820190506124776000830187612142565b6124846020830186612142565b6124916040830185612414565b81810360608301526124a381846121be565b905095945050505050565b600060208201905081810360008301526124c88184612151565b905092915050565b60006020820190506124e560008301846121af565b92915050565b6000602082019050818103600083015261250581846121f7565b905092915050565b6000604082019050818103600083015261252781856121f7565b90506125366020830184612142565b9392505050565b6000602082019050818103600083015261255681612261565b9050919050565b6000602082019050818103600083015261257681612284565b9050919050565b60006020820190508181036000830152612596816122a7565b9050919050565b600060208201905081810360008301526125b6816122ca565b9050919050565b600060208201905081810360008301526125d6816122ed565b9050919050565b600060208201905081810360008301526125f681612310565b9050919050565b6000602082019050818103600083015261261681612333565b9050919050565b6000602082019050818103600083015261263681612356565b9050919050565b6000602082019050818103600083015261265681612379565b9050919050565b600060208201905081810360008301526126768161239c565b9050919050565b60006020820190508181036000830152612696816123bf565b9050919050565b600060208201905081810360008301526126b6816123e2565b9050919050565b60006020820190506126d26000830184612414565b92915050565b60006126e26126f3565b90506126ee828261297e565b919050565b6000604051905090565b600067ffffffffffffffff82111561271857612717612ab6565b5b61272182612ae5565b9050602081019050919050565b600067ffffffffffffffff82111561274957612748612ab6565b5b61275282612ae5565b9050602081019050919050565b6000819050602082019050919050565b600081519050919050565b600081519050919050565b600081519050919050565b6000602082019050919050565b600082825260208201905092915050565b600082825260208201905092915050565b600082825260208201905092915050565b600081905092915050565b60006127e682612900565b91506127f183612900565b9250827fffffffffffffffffffffffffffffffffffffffffffffffffffffffffffffffff0382111561282657612825612a29565b5b828201905092915050565b600061283c82612900565b915061284783612900565b92508261285757612856612a58565b5b828204905092915050565b600061286d82612900565b915061287883612900565b92508282101561288b5761288a612a29565b5b828203905092915050565b60006128a1826128e0565b9050919050565b60008115159050919050565b60007fffffffff0000000000000000000000000000000000000000000000000000000082169050919050565b600073ffffffffffffffffffffffffffffffffffffffff82169050919050565b6000819050919050565b82818337600083830152505050565b60005b8381101561293757808201518184015260208101905061291c565b83811115612946576000848401525b50505050565b6000600282049050600182168061296457607f821691505b6020821081141561297857612977612a87565b5b50919050565b61298782612ae5565b810181811067ffffffffffffffff821117156129a6576129a5612ab6565b5b80604052505050565b60006129ba82612900565b91507fffffffffffffffffffffffffffffffffffffffffffffffffffffffffffffffff8214156129ed576129ec612a29565b5b600182019050919050565b6000612a0382612900565b9150612a0e83612900565b925082612a1e57612a1d612a58565b5b828206905092915050565b7f4e487b7100000000000000000000000000000000000000000000000000000000600052601160045260246000fd5b7f4e487b7100000000000000000000000000000000000000000000000000000000600052601260045260246000fd5b7f4e487b7100000000000000000000000000000000000000000000000000000000600052602260045260246000fd5b7f4e487b7100000000000000000000000000000000000000000000000000000000600052604160045260246000fd5b6000601f19601f8301169050919050565b7f4552433732313a207472616e7366657220746f206e6f6e20455243373231526560008201527f63656976657220696d706c656d656e7465720000000000000000000000000000602082015250565b7f4552433732313a207472616e736665722066726f6d20696e636f72726563742060008201527f6f776e6572000000000000000000000000000000000000000000000000000000602082015250565b7f4552433732313a20746f6b656e20616c7265616479206d696e74656400000000600082015250565b7f4552433732313a207472616e7366657220746f20746865207a65726f2061646460008201527f7265737300000000000000000000000000000000000000000000000000000000602082015250565b7f4552433732313a20617070726f766520746f2063616c6c657200000000000000600082015250565b7f4552433732313a2061646472657373207a65726f206973206e6f74206120766160008201527f6c6964206f776e65720000000000000000000000000000000000000000000000602082015250565b7f45524337323155524953746f726167653a2055524920736574206f66206e6f6e60008201527f6578697374656e7420746f6b656e000000000000000000000000000000000000602082015250565b7f4552433732313a20617070726f76652063616c6c6572206973206e6f7420746f60008201527f6b656e206f776e6572206e6f7220617070726f76656420666f7220616c6c0000602082015250565b7f4552433732313a206d696e7420746f20746865207a65726f2061646472657373600082015250565b7f4552433732313a20696e76616c696420746f6b656e2049440000000000000000600082015250565b7f4552433732313a20617070726f76616c20746f2063757272656e74206f776e6560008201527f7200000000000000000000000000000000000000000000000000000000000000602082015250565b7f4552433732313a2063616c6c6572206973206e6f7420746f6b656e206f776e6560008201527f72206e6f7220617070726f766564000000000000000000000000000000000000602082015250565b612e1b81612896565b8114612e2657600080fd5b50565b612e32816128a8565b8114612e3d57600080fd5b50565b612e49816128b4565b8114612e5457600080fd5b50565b612e6081612900565b8114612e6b57600080fd5b5056fea26469706673582212209f9ae3b4a38e9e3ebf4fe0d0f7374cd44659deaf1e8b6d910f11eac3dd0ef73164736f6c63430008040033",
  "linkReferences": {},
  "deployedLinkReferences": {}
}