{
  "_format": "hh-sol-artifact-1",
  "contractName": "Marketplace",
  "sourceName": "contracts/Marketplace.sol",
  "abi": [
    {
      "inputs": [],
      "stateMutability": "nonpayable",
      "type": "constructor"
    },
    {
      "anonymous": false,
      "inputs": [
        {
          "indexed": true,
          "internalType": "uint256",
          "name": "marketItemId",
          "type": "uint256"
        },
        {
          "indexed": true,
          "internalType": "address",
          "name": "nftContract",
          "type": "address"
        },
        {
          "indexed": true,
          "internalType": "uint256",
          "name": "tokenId",
          "type": "uint256"
        },
        {
          "indexed": false,
          "internalType": "address",
          "name": "creator",
          "type": "address"
        },
        {
          "indexed": false,
          "internalType": "address",
          "name": "seller",
          "type": "address"
        },
        {
          "indexed": false,
          "internalType": "address",
          "name": "owner",
          "type": "address"
        },
        {
          "indexed": false,
          "internalType": "uint256",
          "name": "price",
          "type": "uint256"
        },
        {
          "indexed": false,
          "internalType": "bool",
          "name": "sold",
          "type": "bool"
        },
        {
          "indexed": false,
          "internalType": "bool",
          "name": "canceled",
          "type": "bool"
        }
      ],
      "name": "MarketItemCreated",
      "type": "event"
    },
    {
      "anonymous": false,
      "inputs": [
        {
          "indexed": true,
          "internalType": "uint256",
          "name": "marketItemId",
          "type": "uint256"
        },
        {
          "indexed": true,
          "internalType": "address",
          "name": "nftContract",
          "type": "address"
        },
        {
          "indexed": true,
          "internalType": "uint256",
          "name": "tokenId",
          "type": "uint256"
        },
        {
          "indexed": false,
          "internalType": "address",
          "name": "creator",
          "type": "address"
        },
        {
          "indexed": false,
          "internalType": "address",
          "name": "seller",
          "type": "address"
        },
        {
          "indexed": false,
          "internalType": "address",
          "name": "buyer",
          "type": "address"
        },
        {
          "indexed": false,
          "internalType": "uint256",
          "name": "price",
          "type": "uint256"
        },
        {
          "indexed": false,
          "internalType": "bool",
          "name": "sold",
          "type": "bool"
        },
        {
          "indexed": false,
          "internalType": "bool",
          "name": "canceled",
          "type": "bool"
        }
      ],
      "name": "MarketItemSold",
      "type": "event"
    },
    {
      "inputs": [
        {
          "internalType": "address",
          "name": "nftContractAddress",
          "type": "address"
        },
        {
          "internalType": "uint256",
          "name": "marketItemId",
          "type": "uint256"
        }
      ],
      "name": "cancelMarketItem",
      "outputs": [],
      "stateMutability": "payable",
      "type": "function"
    },
    {
      "inputs": [
        {
          "internalType": "address",
          "name": "nftContractAddress",
          "type": "address"
        },
        {
          "internalType": "uint256",
          "name": "tokenId",
          "type": "uint256"
        },
        {
          "internalType": "uint256",
          "name": "price",
          "type": "uint256"
        }
      ],
      "name": "createMarketItem",
      "outputs": [
        {
          "internalType": "uint256",
          "name": "",
          "type": "uint256"
        }
      ],
      "stateMutability": "payable",
      "type": "function"
    },
    {
      "inputs": [
        {
          "internalType": "address",
          "name": "nftContractAddress",
          "type": "address"
        },
        {
          "internalType": "uint256",
          "name": "marketItemId",
          "type": "uint256"
        }
      ],
      "name": "createMarketSale",
      "outputs": [],
      "stateMutability": "payable",
      "type": "function"
    },
    {
      "inputs": [],
      "name": "fetchAvailableMarketItems",
      "outputs": [
        {
          "components": [
            {
              "internalType": "uint256",
              "name": "marketItemId",
              "type": "uint256"
            },
            {
              "internalType": "address",
              "name": "nftContractAddress",
              "type": "address"
            },
            {
              "internalType": "uint256",
              "name": "tokenId",
              "type": "uint256"
            },
            {
              "internalType": "address payable",
              "name": "creator",
              "type": "address"
            },
            {
              "internalType": "address payable",
              "name": "seller",
              "type": "address"
            },
            {
              "internalType": "address payable",
              "name": "owner",
              "type": "address"
            },
            {
              "internalType": "uint256",
              "name": "price",
              "type": "uint256"
            },
            {
              "internalType": "bool",
              "name": "sold",
              "type": "bool"
            },
            {
              "internalType": "bool",
              "name": "canceled",
              "type": "bool"
            }
          ],
          "internalType": "struct Marketplace.MarketItem[]",
          "name": "",
          "type": "tuple[]"
        }
      ],
      "stateMutability": "view",
      "type": "function"
    },
    {
      "inputs": [
        {
          "internalType": "string",
          "name": "_addressProperty",
          "type": "string"
        }
      ],
      "name": "fetchMarketItemsByAddressProperty",
      "outputs": [
        {
          "components": [
            {
              "internalType": "uint256",
              "name": "marketItemId",
              "type": "uint256"
            },
            {
              "internalType": "address",
              "name": "nftContractAddress",
              "type": "address"
            },
            {
              "internalType": "uint256",
              "name": "tokenId",
              "type": "uint256"
            },
            {
              "internalType": "address payable",
              "name": "creator",
              "type": "address"
            },
            {
              "internalType": "address payable",
              "name": "seller",
              "type": "address"
            },
            {
              "internalType": "address payable",
              "name": "owner",
              "type": "address"
            },
            {
              "internalType": "uint256",
              "name": "price",
              "type": "uint256"
            },
            {
              "internalType": "bool",
              "name": "sold",
              "type": "bool"
            },
            {
              "internalType": "bool",
              "name": "canceled",
              "type": "bool"
            }
          ],
          "internalType": "struct Marketplace.MarketItem[]",
          "name": "",
          "type": "tuple[]"
        }
      ],
      "stateMutability": "view",
      "type": "function"
    },
    {
      "inputs": [],
      "name": "fetchOwnedMarketItems",
      "outputs": [
        {
          "components": [
            {
              "internalType": "uint256",
              "name": "marketItemId",
              "type": "uint256"
            },
            {
              "internalType": "address",
              "name": "nftContractAddress",
              "type": "address"
            },
            {
              "internalType": "uint256",
              "name": "tokenId",
              "type": "uint256"
            },
            {
              "internalType": "address payable",
              "name": "creator",
              "type": "address"
            },
            {
              "internalType": "address payable",
              "name": "seller",
              "type": "address"
            },
            {
              "internalType": "address payable",
              "name": "owner",
              "type": "address"
            },
            {
              "internalType": "uint256",
              "name": "price",
              "type": "uint256"
            },
            {
              "internalType": "bool",
              "name": "sold",
              "type": "bool"
            },
            {
              "internalType": "bool",
              "name": "canceled",
              "type": "bool"
            }
          ],
          "internalType": "struct Marketplace.MarketItem[]",
          "name": "",
          "type": "tuple[]"
        }
      ],
      "stateMutability": "view",
      "type": "function"
    },
    {
      "inputs": [],
      "name": "fetchSellingMarketItems",
      "outputs": [
        {
          "components": [
            {
              "internalType": "uint256",
              "name": "marketItemId",
              "type": "uint256"
            },
            {
              "internalType": "address",
              "name": "nftContractAddress",
              "type": "address"
            },
            {
              "internalType": "uint256",
              "name": "tokenId",
              "type": "uint256"
            },
            {
              "internalType": "address payable",
              "name": "creator",
              "type": "address"
            },
            {
              "internalType": "address payable",
              "name": "seller",
              "type": "address"
            },
            {
              "internalType": "address payable",
              "name": "owner",
              "type": "address"
            },
            {
              "internalType": "uint256",
              "name": "price",
              "type": "uint256"
            },
            {
              "internalType": "bool",
              "name": "sold",
              "type": "bool"
            },
            {
              "internalType": "bool",
              "name": "canceled",
              "type": "bool"
            }
          ],
          "internalType": "struct Marketplace.MarketItem[]",
          "name": "",
          "type": "tuple[]"
        }
      ],
      "stateMutability": "view",
      "type": "function"
    },
    {
      "inputs": [
        {
          "internalType": "uint256",
          "name": "tokenId",
          "type": "uint256"
        }
      ],
      "name": "getLatestMarketItemByTokenId",
      "outputs": [
        {
          "components": [
            {
              "internalType": "uint256",
              "name": "marketItemId",
              "type": "uint256"
            },
            {
              "internalType": "address",
              "name": "nftContractAddress",
              "type": "address"
            },
            {
              "internalType": "uint256",
              "name": "tokenId",
              "type": "uint256"
            },
            {
              "internalType": "address payable",
              "name": "creator",
              "type": "address"
            },
            {
              "internalType": "address payable",
              "name": "seller",
              "type": "address"
            },
            {
              "internalType": "address payable",
              "name": "owner",
              "type": "address"
            },
            {
              "internalType": "uint256",
              "name": "price",
              "type": "uint256"
            },
            {
              "internalType": "bool",
              "name": "sold",
              "type": "bool"
            },
            {
              "internalType": "bool",
              "name": "canceled",
              "type": "bool"
            }
          ],
          "internalType": "struct Marketplace.MarketItem",
          "name": "",
          "type": "tuple"
        },
        {
          "internalType": "bool",
          "name": "",
          "type": "bool"
        }
      ],
      "stateMutability": "view",
      "type": "function"
    },
    {
      "inputs": [],
      "name": "getListingFee",
      "outputs": [
        {
          "internalType": "uint256",
          "name": "",
          "type": "uint256"
        }
      ],
      "stateMutability": "view",
      "type": "function"
    }
  ],
  "bytecode": "0x608060405266470de4df82000060055534801561001b57600080fd5b50600160008190555033600460006101000a81548173ffffffffffffffffffffffffffffffffffffffff021916908373ffffffffffffffffffffffffffffffffffffffff160217905550612879806100746000396000f3fe6080604052600436106100865760003560e01c80636f9b4920116100595780636f9b49201461013c578063b3e3c42f1461017a578063b8fe6abe14610196578063c23b139e146101c1578063cd90fdf4146101dd57610086565b80630203c8231461008b5780630e01c969146100b65780634cf2a069146100e157806358eb2df51461010c575b600080fd5b34801561009757600080fd5b506100a061021a565b6040516100ad9190612286565b60405180910390f35b3480156100c257600080fd5b506100cb61025f565b6040516100d89190612286565b60405180910390f35b3480156100ed57600080fd5b506100f66105bf565b6040516101039190612286565b60405180910390f35b61012660048036038101906101219190611d5d565b610604565b6040516101339190612393565b60405180910390f35b34801561014857600080fd5b50610163600480360381019061015e9190611ded565b610a4b565b604051610171929190612368565b60405180910390f35b610194600480360381019061018f9190611d21565b610c8b565b005b3480156101a257600080fd5b506101ab610ee5565b6040516101b89190612393565b60405180910390f35b6101db60048036038101906101d69190611d21565b610eef565b005b3480156101e957600080fd5b5061020460048036038101906101ff9190611dac565b611205565b6040516102119190612286565b60405180910390f35b606061025a6040518060400160405280600581526020017f6f776e6572000000000000000000000000000000000000000000000000000000815250611205565b905090565b6060600061026d6001611a0b565b9050600061027b6002611a0b565b905060006102896003611a0b565b9050600081838561029a91906124ba565b6102a491906124ba565b905060008167ffffffffffffffff8111156102e8577f4e487b7100000000000000000000000000000000000000000000000000000000600052604160045260246000fd5b60405190808252806020026020018201604052801561032157816020015b61030e611ba9565b8152602001906001900390816103065790505b5090506000805b868110156105b2576000600660006001846103439190612464565b815260200190815260200160002060405180610120016040529081600082015481526020016001820160009054906101000a900473ffffffffffffffffffffffffffffffffffffffff1673ffffffffffffffffffffffffffffffffffffffff1673ffffffffffffffffffffffffffffffffffffffff168152602001600282015481526020016003820160009054906101000a900473ffffffffffffffffffffffffffffffffffffffff1673ffffffffffffffffffffffffffffffffffffffff1673ffffffffffffffffffffffffffffffffffffffff1681526020016004820160009054906101000a900473ffffffffffffffffffffffffffffffffffffffff1673ffffffffffffffffffffffffffffffffffffffff1673ffffffffffffffffffffffffffffffffffffffff1681526020016005820160009054906101000a900473ffffffffffffffffffffffffffffffffffffffff1673ffffffffffffffffffffffffffffffffffffffff1673ffffffffffffffffffffffffffffffffffffffff168152602001600682015481526020016007820160009054906101000a900460ff161515151581526020016007820160019054906101000a900460ff1615151515815250509050600073ffffffffffffffffffffffffffffffffffffffff168160a0015173ffffffffffffffffffffffffffffffffffffffff1614610549575061059f565b80848481518110610583577f4e487b7100000000000000000000000000000000000000000000000000000000600052603260045260246000fd5b602002602001018190525060018361059b9190612464565b9250505b80806105aa9061261b565b915050610328565b5081965050505050505090565b60606105ff6040518060400160405280600681526020017f73656c6c65720000000000000000000000000000000000000000000000000000815250611205565b905090565b60006002600054141561064c576040517f08c379a000000000000000000000000000000000000000000000000000000000815260040161064390612328565b60405180910390fd5b600260008190555060008211610697576040517f08c379a000000000000000000000000000000000000000000000000000000000815260040161068e90612348565b60405180910390fd5b6106a16001611a19565b60006106ad6001611a0b565b905060008573ffffffffffffffffffffffffffffffffffffffff1663867d3397866040518263ffffffff1660e01b81526004016106ea9190612393565b60206040518083038186803b15801561070257600080fd5b505afa158015610716573d6000803e3d6000fd5b505050506040513d601f19601f8201168201806040525081019061073a9190611cf8565b90506040518061012001604052808381526020018773ffffffffffffffffffffffffffffffffffffffff1681526020018681526020018273ffffffffffffffffffffffffffffffffffffffff1681526020013373ffffffffffffffffffffffffffffffffffffffff168152602001600073ffffffffffffffffffffffffffffffffffffffff16815260200185815260200160001515815260200160001515815250600660008481526020019081526020016000206000820151816000015560208201518160010160006101000a81548173ffffffffffffffffffffffffffffffffffffffff021916908373ffffffffffffffffffffffffffffffffffffffff1602179055506040820151816002015560608201518160030160006101000a81548173ffffffffffffffffffffffffffffffffffffffff021916908373ffffffffffffffffffffffffffffffffffffffff16021790555060808201518160040160006101000a81548173ffffffffffffffffffffffffffffffffffffffff021916908373ffffffffffffffffffffffffffffffffffffffff16021790555060a08201518160050160006101000a81548173ffffffffffffffffffffffffffffffffffffffff021916908373ffffffffffffffffffffffffffffffffffffffff16021790555060c0820151816006015560e08201518160070160006101000a81548160ff0219169083151502179055506101008201518160070160016101000a81548160ff0219169083151502179055509050508573ffffffffffffffffffffffffffffffffffffffff166323b872dd3330886040518463ffffffff1660e01b81526004016109a99392919061224f565b600060405180830381600087803b1580156109c357600080fd5b505af11580156109d7573d6000803e3d6000fd5b50505050848673ffffffffffffffffffffffffffffffffffffffff16837fa3b15201f5409f14cce6233dc60972278c313ff3ddbdee57ff092c0e95313526843360008a600080604051610a2f9695949392919061218d565b60405180910390a4819250505060016000819055509392505050565b610a53611ba9565b600080610a606001611a0b565b905060008190505b6000811115610c735760006006600083815260200190815260200160002060405180610120016040529081600082015481526020016001820160009054906101000a900473ffffffffffffffffffffffffffffffffffffffff1673ffffffffffffffffffffffffffffffffffffffff1673ffffffffffffffffffffffffffffffffffffffff168152602001600282015481526020016003820160009054906101000a900473ffffffffffffffffffffffffffffffffffffffff1673ffffffffffffffffffffffffffffffffffffffff1673ffffffffffffffffffffffffffffffffffffffff1681526020016004820160009054906101000a900473ffffffffffffffffffffffffffffffffffffffff1673ffffffffffffffffffffffffffffffffffffffff1673ffffffffffffffffffffffffffffffffffffffff1681526020016005820160009054906101000a900473ffffffffffffffffffffffffffffffffffffffff1673ffffffffffffffffffffffffffffffffffffffff1673ffffffffffffffffffffffffffffffffffffffff168152602001600682015481526020016007820160009054906101000a900460ff161515151581526020016007820160019054906101000a900460ff161515151581525050905085816040015114610c515750610c60565b80600194509450505050610c86565b8080610c6b906125c0565b915050610a68565b50610c7c611ba9565b8060009350935050505b915091565b60026000541415610cd1576040517f08c379a0000000000000000000000000000000000000000000000000000000008152600401610cc890612328565b60405180910390fd5b600260008190555060006006600083815260200190815260200160002060020154905060008111610d37576040517f08c379a0000000000000000000000000000000000000000000000000000000008152600401610d2e906122a8565b60405180910390fd5b3373ffffffffffffffffffffffffffffffffffffffff166006600084815260200190815260200160002060040160009054906101000a900473ffffffffffffffffffffffffffffffffffffffff1673ffffffffffffffffffffffffffffffffffffffff1614610ddb576040517f08c379a0000000000000000000000000000000000000000000000000000000008152600401610dd290612308565b60405180910390fd5b8273ffffffffffffffffffffffffffffffffffffffff166323b872dd3033846040518463ffffffff1660e01b8152600401610e189392919061224f565b600060405180830381600087803b158015610e3257600080fd5b505af1158015610e46573d6000803e3d6000fd5b50505050336006600084815260200190815260200160002060050160006101000a81548173ffffffffffffffffffffffffffffffffffffffff021916908373ffffffffffffffffffffffffffffffffffffffff16021790555060016006600084815260200190815260200160002060070160016101000a81548160ff021916908315150217905550610ed86003611a19565b5060016000819055505050565b6000600554905090565b60026000541415610f35576040517f08c379a0000000000000000000000000000000000000000000000000000000008152600401610f2c90612328565b60405180910390fd5b6002600081905550600060066000838152602001908152602001600020600601549050600060066000848152602001908152602001600020600201549050813414610fb5576040517f08c379a0000000000000000000000000000000000000000000000000000000008152600401610fac906122c8565b60405180910390fd5b336006600085815260200190815260200160002060050160006101000a81548173ffffffffffffffffffffffffffffffffffffffff021916908373ffffffffffffffffffffffffffffffffffffffff16021790555060016006600085815260200190815260200160002060070160006101000a81548160ff0219169083151502179055506006600084815260200190815260200160002060040160009054906101000a900473ffffffffffffffffffffffffffffffffffffffff1673ffffffffffffffffffffffffffffffffffffffff166108fc349081150290604051600060405180830381858888f193505050501580156110b5573d6000803e3d6000fd5b508373ffffffffffffffffffffffffffffffffffffffff166323b872dd3033846040518463ffffffff1660e01b81526004016110f39392919061224f565b600060405180830381600087803b15801561110d57600080fd5b505af1158015611121573d6000803e3d6000fd5b5050505061112f6002611a19565b808473ffffffffffffffffffffffffffffffffffffffff16847f803569a133313a21f841b500261ca01cef4b800edb6c1c7448fc6ad31f240a506006600088815260200190815260200160002060030160009054906101000a900473ffffffffffffffffffffffffffffffffffffffff166006600089815260200190815260200160002060040160009054906101000a900473ffffffffffffffffffffffffffffffffffffffff163388600160006040516111ef969594939291906121ee565b60405180910390a4505060016000819055505050565b6060611246826040518060400160405280600681526020017f73656c6c65720000000000000000000000000000000000000000000000000000815250611a2f565b8061128c575061128b826040518060400160405280600581526020017f6f776e6572000000000000000000000000000000000000000000000000000000815250611a2f565b5b6112cb576040517f08c379a00000000000000000000000000000000000000000000000000000000081526004016112c2906122e8565b60405180910390fd5b60006112d76001611a0b565b905060008060005b8381101561152f576000600660006001846112fa9190612464565b8152602001908152602001600020905060006114ce8260405180610120016040529081600082015481526020016001820160009054906101000a900473ffffffffffffffffffffffffffffffffffffffff1673ffffffffffffffffffffffffffffffffffffffff1673ffffffffffffffffffffffffffffffffffffffff168152602001600282015481526020016003820160009054906101000a900473ffffffffffffffffffffffffffffffffffffffff1673ffffffffffffffffffffffffffffffffffffffff1673ffffffffffffffffffffffffffffffffffffffff1681526020016004820160009054906101000a900473ffffffffffffffffffffffffffffffffffffffff1673ffffffffffffffffffffffffffffffffffffffff1673ffffffffffffffffffffffffffffffffffffffff1681526020016005820160009054906101000a900473ffffffffffffffffffffffffffffffffffffffff1673ffffffffffffffffffffffffffffffffffffffff1673ffffffffffffffffffffffffffffffffffffffff168152602001600682015481526020016007820160009054906101000a900460ff161515151581526020016007820160019054906101000a900460ff16151515158152505089611a88565b90503373ffffffffffffffffffffffffffffffffffffffff168173ffffffffffffffffffffffffffffffffffffffff161461150a57505061151c565b6001856115179190612464565b945050505b80806115279061261b565b9150506112df565b5060008267ffffffffffffffff811115611572577f4e487b7100000000000000000000000000000000000000000000000000000000600052604160045260246000fd5b6040519080825280602002602001820160405280156115ab57816020015b611598611ba9565b8152602001906001900390816115905790505b50905060005b848110156119fe576000600660006001846115cc9190612464565b8152602001908152602001600020905060006117a08260405180610120016040529081600082015481526020016001820160009054906101000a900473ffffffffffffffffffffffffffffffffffffffff1673ffffffffffffffffffffffffffffffffffffffff1673ffffffffffffffffffffffffffffffffffffffff168152602001600282015481526020016003820160009054906101000a900473ffffffffffffffffffffffffffffffffffffffff1673ffffffffffffffffffffffffffffffffffffffff1673ffffffffffffffffffffffffffffffffffffffff1681526020016004820160009054906101000a900473ffffffffffffffffffffffffffffffffffffffff1673ffffffffffffffffffffffffffffffffffffffff1673ffffffffffffffffffffffffffffffffffffffff1681526020016005820160009054906101000a900473ffffffffffffffffffffffffffffffffffffffff1673ffffffffffffffffffffffffffffffffffffffff1673ffffffffffffffffffffffffffffffffffffffff168152602001600682015481526020016007820160009054906101000a900460ff161515151581526020016007820160019054906101000a900460ff1615151515815250508a611a88565b90503373ffffffffffffffffffffffffffffffffffffffff168173ffffffffffffffffffffffffffffffffffffffff16146117dc5750506119eb565b8160405180610120016040529081600082015481526020016001820160009054906101000a900473ffffffffffffffffffffffffffffffffffffffff1673ffffffffffffffffffffffffffffffffffffffff1673ffffffffffffffffffffffffffffffffffffffff168152602001600282015481526020016003820160009054906101000a900473ffffffffffffffffffffffffffffffffffffffff1673ffffffffffffffffffffffffffffffffffffffff1673ffffffffffffffffffffffffffffffffffffffff1681526020016004820160009054906101000a900473ffffffffffffffffffffffffffffffffffffffff1673ffffffffffffffffffffffffffffffffffffffff1673ffffffffffffffffffffffffffffffffffffffff1681526020016005820160009054906101000a900473ffffffffffffffffffffffffffffffffffffffff1673ffffffffffffffffffffffffffffffffffffffff1673ffffffffffffffffffffffffffffffffffffffff168152602001600682015481526020016007820160009054906101000a900460ff161515151581526020016007820160019054906101000a900460ff1615151515815250508486815181106119ce577f4e487b7100000000000000000000000000000000000000000000000000000000600052603260045260246000fd5b60200260200101819052506001856119e69190612464565b945050505b80806119f69061261b565b9150506115b1565b5080945050505050919050565b600081600001549050919050565b6001816000016000828254019250508190555050565b600081604051602001611a429190612176565b6040516020818303038152906040528051906020012083604051602001611a699190612176565b6040516020818303038152906040528051906020012014905092915050565b6000611ac9826040518060400160405280600681526020017f73656c6c65720000000000000000000000000000000000000000000000000000815250611a2f565b80611b0f5750611b0e826040518060400160405280600581526020017f6f776e6572000000000000000000000000000000000000000000000000000000815250611a2f565b5b611b4e576040517f08c379a0000000000000000000000000000000000000000000000000000000008152600401611b45906122e8565b60405180910390fd5b611b8d826040518060400160405280600681526020017f73656c6c65720000000000000000000000000000000000000000000000000000815250611a2f565b611b9b578260a00151611ba1565b82608001515b905092915050565b60405180610120016040528060008152602001600073ffffffffffffffffffffffffffffffffffffffff16815260200160008152602001600073ffffffffffffffffffffffffffffffffffffffff168152602001600073ffffffffffffffffffffffffffffffffffffffff168152602001600073ffffffffffffffffffffffffffffffffffffffff168152602001600081526020016000151581526020016000151581525090565b6000611c64611c5f846123d3565b6123ae565b905082815260208101848484011115611c7c57600080fd5b611c8784828561257e565b509392505050565b600081359050611c9e81612815565b92915050565b600081519050611cb381612815565b92915050565b600082601f830112611cca57600080fd5b8135611cda848260208601611c51565b91505092915050565b600081359050611cf28161282c565b92915050565b600060208284031215611d0a57600080fd5b6000611d1884828501611ca4565b91505092915050565b60008060408385031215611d3457600080fd5b6000611d4285828601611c8f565b9250506020611d5385828601611ce3565b9150509250929050565b600080600060608486031215611d7257600080fd5b6000611d8086828701611c8f565b9350506020611d9186828701611ce3565b9250506040611da286828701611ce3565b9150509250925092565b600060208284031215611dbe57600080fd5b600082013567ffffffffffffffff811115611dd857600080fd5b611de484828501611cb9565b91505092915050565b600060208284031215611dff57600080fd5b6000611e0d84828501611ce3565b91505092915050565b6000611e228383611fea565b6101208301905092915050565b611e3881612548565b82525050565b611e4781612500565b82525050565b611e56816124ee565b82525050565b611e65816124ee565b82525050565b6000611e7682612414565b611e808185612437565b9350611e8b83612404565b8060005b83811015611ebc578151611ea38882611e16565b9750611eae8361242a565b925050600181019050611e8f565b5085935050505092915050565b611ed281612512565b82525050565b611ee181612512565b82525050565b6000611ef28261241f565b611efc8185612459565b9350611f0c81856020860161258d565b80840191505092915050565b6000611f25601883612448565b9150611f30826126d3565b602082019050919050565b6000611f48603383612448565b9150611f53826126fc565b604082019050919050565b6000611f6b602583612448565b9150611f768261274b565b604082019050919050565b6000611f8e601683612448565b9150611f998261279a565b602082019050919050565b6000611fb1601f83612448565b9150611fbc826127c3565b602082019050919050565b6000611fd4601c83612448565b9150611fdf826127ec565b602082019050919050565b610120820160008201516120016000850182612158565b5060208201516120146020850182611e4d565b5060408201516120276040850182612158565b50606082015161203a6060850182611e3e565b50608082015161204d6080850182611e3e565b5060a082015161206060a0850182611e3e565b5060c082015161207360c0850182612158565b5060e082015161208660e0850182611ec9565b5061010082015161209b610100850182611ec9565b50505050565b610120820160008201516120b86000850182612158565b5060208201516120cb6020850182611e4d565b5060408201516120de6040850182612158565b5060608201516120f16060850182611e3e565b5060808201516121046080850182611e3e565b5060a082015161211760a0850182611e3e565b5060c082015161212a60c0850182612158565b5060e082015161213d60e0850182611ec9565b50610100820151612152610100850182611ec9565b50505050565b6121618161253e565b82525050565b6121708161253e565b82525050565b60006121828284611ee7565b915081905092915050565b600060c0820190506121a26000830189611e2f565b6121af6020830188611e2f565b6121bc6040830187611e2f565b6121c96060830186612167565b6121d66080830185611ed8565b6121e360a0830184611ed8565b979650505050505050565b600060c0820190506122036000830189611e2f565b6122106020830188611e2f565b61221d6040830187611e5c565b61222a6060830186612167565b6122376080830185611ed8565b61224460a0830184611ed8565b979650505050505050565b60006060820190506122646000830186611e5c565b6122716020830185611e5c565b61227e6040830184612167565b949350505050565b600060208201905081810360008301526122a08184611e6b565b905092915050565b600060208201905081810360008301526122c181611f18565b9050919050565b600060208201905081810360008301526122e181611f3b565b9050919050565b6000602082019050818103600083015261230181611f5e565b9050919050565b6000602082019050818103600083015261232181611f81565b9050919050565b6000602082019050818103600083015261234181611fa4565b9050919050565b6000602082019050818103600083015261236181611fc7565b9050919050565b60006101408201905061237e60008301856120a1565b61238c610120830184611ed8565b9392505050565b60006020820190506123a86000830184612167565b92915050565b60006123b86123c9565b90506123c482826125ea565b919050565b6000604051905090565b600067ffffffffffffffff8211156123ee576123ed612693565b5b6123f7826126c2565b9050602081019050919050565b6000819050602082019050919050565b600081519050919050565b600081519050919050565b6000602082019050919050565b600082825260208201905092915050565b600082825260208201905092915050565b600081905092915050565b600061246f8261253e565b915061247a8361253e565b9250827fffffffffffffffffffffffffffffffffffffffffffffffffffffffffffffffff038211156124af576124ae612664565b5b828201905092915050565b60006124c58261253e565b91506124d08361253e565b9250828210156124e3576124e2612664565b5b828203905092915050565b60006124f98261251e565b9050919050565b600061250b8261251e565b9050919050565b60008115159050919050565b600073ffffffffffffffffffffffffffffffffffffffff82169050919050565b6000819050919050565b60006125538261255a565b9050919050565b60006125658261256c565b9050919050565b60006125778261251e565b9050919050565b82818337600083830152505050565b60005b838110156125ab578082015181840152602081019050612590565b838111156125ba576000848401525b50505050565b60006125cb8261253e565b915060008214156125df576125de612664565b5b600182039050919050565b6125f3826126c2565b810181811067ffffffffffffffff8211171561261257612611612693565b5b80604052505050565b60006126268261253e565b91507fffffffffffffffffffffffffffffffffffffffffffffffffffffffffffffffff82141561265957612658612664565b5b600182019050919050565b7f4e487b7100000000000000000000000000000000000000000000000000000000600052601160045260246000fd5b7f4e487b7100000000000000000000000000000000000000000000000000000000600052604160045260246000fd5b6000601f19601f8301169050919050565b7f4d61726b6574206974656d2068617320746f2065786973740000000000000000600082015250565b7f506c65617365207375626d6974207468652061736b696e67207072696365206960008201527f6e206f7264657220746f20636f6e74696e756500000000000000000000000000602082015250565b7f506172616d65746572206d757374206265202773656c6c657227206f7220276f60008201527f776e657227000000000000000000000000000000000000000000000000000000602082015250565b7f596f7520617265206e6f74207468652073656c6c657200000000000000000000600082015250565b7f5265656e7472616e637947756172643a207265656e7472616e742063616c6c00600082015250565b7f5072696365206d757374206265206174206c6561737420312077656900000000600082015250565b61281e816124ee565b811461282957600080fd5b50565b6128358161253e565b811461284057600080fd5b5056fea26469706673582212209da54923eb695e75d6875c025b22fd5927ba1860285f43fb1ec8579ce263051b64736f6c63430008040033",
  "linkReferences": {},
  "deployedLinkReferences": {}
}