{
  "_format": "hh-sol-artifact-1",
  "contractName": "Marketplace",
  "sourceName": "contracts/Marketplace.sol",
  "abi": [
    {
      "inputs": [],
      "stateMutability": "nonpayable",
      "type": "constructor"
    },
    {
      "anonymous": false,
      "inputs": [
        {
          "indexed": true,
          "internalType": "uint256",
          "name": "marketItemId",
          "type": "uint256"
        },
        {
          "indexed": true,
          "internalType": "address",
          "name": "nftContract",
          "type": "address"
        },
        {
          "indexed": true,
          "internalType": "uint256",
          "name": "tokenId",
          "type": "uint256"
        },
        {
          "indexed": false,
          "internalType": "address",
          "name": "creator",
          "type": "address"
        },
        {
          "indexed": false,
          "internalType": "address",
          "name": "seller",
          "type": "address"
        },
        {
          "indexed": false,
          "internalType": "address",
          "name": "owner",
          "type": "address"
        },
        {
          "indexed": false,
          "internalType": "uint256",
          "name": "price",
          "type": "uint256"
        },
        {
          "indexed": false,
          "internalType": "bool",
          "name": "sold",
          "type": "bool"
        },
        {
          "indexed": false,
          "internalType": "bool",
          "name": "canceled",
          "type": "bool"
        }
      ],
      "name": "MarketItemCreated",
      "type": "event"
    },
    {
      "anonymous": false,
      "inputs": [
        {
          "indexed": true,
          "internalType": "uint256",
          "name": "marketItemId",
          "type": "uint256"
        },
        {
          "indexed": true,
          "internalType": "address",
          "name": "nftContract",
          "type": "address"
        },
        {
          "indexed": true,
          "internalType": "uint256",
          "name": "tokenId",
          "type": "uint256"
        },
        {
          "indexed": false,
          "internalType": "address",
          "name": "creator",
          "type": "address"
        },
        {
          "indexed": false,
          "internalType": "address",
          "name": "seller",
          "type": "address"
        },
        {
          "indexed": false,
          "internalType": "address",
          "name": "buyer",
          "type": "address"
        },
        {
          "indexed": false,
          "internalType": "uint256",
          "name": "price",
          "type": "uint256"
        },
        {
          "indexed": false,
          "internalType": "bool",
          "name": "sold",
          "type": "bool"
        },
        {
          "indexed": false,
          "internalType": "bool",
          "name": "canceled",
          "type": "bool"
        }
      ],
      "name": "MarketItemSold",
      "type": "event"
    },
    {
      "inputs": [
        {
          "internalType": "address",
          "name": "nftContractAddress",
          "type": "address"
        },
        {
          "internalType": "uint256",
          "name": "marketItemId",
          "type": "uint256"
        }
      ],
      "name": "cancelMarketItem",
      "outputs": [],
      "stateMutability": "payable",
      "type": "function"
    },
    {
      "inputs": [
        {
          "internalType": "address",
          "name": "nftContractAddress",
          "type": "address"
        },
        {
          "internalType": "uint256",
          "name": "tokenId",
          "type": "uint256"
        },
        {
          "internalType": "uint256",
          "name": "price",
          "type": "uint256"
        }
      ],
      "name": "createMarketItem",
      "outputs": [
        {
          "internalType": "uint256",
          "name": "",
          "type": "uint256"
        }
      ],
      "stateMutability": "payable",
      "type": "function"
    },
    {
      "inputs": [
        {
          "internalType": "address",
          "name": "nftContractAddress",
          "type": "address"
        },
        {
          "internalType": "uint256",
          "name": "marketItemId",
          "type": "uint256"
        }
      ],
      "name": "createMarketSale",
      "outputs": [],
      "stateMutability": "payable",
      "type": "function"
    },
    {
      "inputs": [],
      "name": "fetchAllMarketItems",
      "outputs": [
        {
          "components": [
            {
              "internalType": "uint256",
              "name": "marketItemId",
              "type": "uint256"
            },
            {
              "internalType": "address",
              "name": "nftContractAddress",
              "type": "address"
            },
            {
              "internalType": "uint256",
              "name": "tokenId",
              "type": "uint256"
            },
            {
              "internalType": "address payable",
              "name": "creator",
              "type": "address"
            },
            {
              "internalType": "address payable",
              "name": "seller",
              "type": "address"
            },
            {
              "internalType": "address payable",
              "name": "owner",
              "type": "address"
            },
            {
              "internalType": "uint256",
              "name": "price",
              "type": "uint256"
            },
            {
              "internalType": "bool",
              "name": "sold",
              "type": "bool"
            },
            {
              "internalType": "bool",
              "name": "canceled",
              "type": "bool"
            }
          ],
          "internalType": "struct Marketplace.MarketItem[]",
          "name": "",
          "type": "tuple[]"
        }
      ],
      "stateMutability": "view",
      "type": "function"
    },
    {
      "inputs": [],
      "name": "fetchAvailableMarketItems",
      "outputs": [
        {
          "components": [
            {
              "internalType": "uint256",
              "name": "marketItemId",
              "type": "uint256"
            },
            {
              "internalType": "address",
              "name": "nftContractAddress",
              "type": "address"
            },
            {
              "internalType": "uint256",
              "name": "tokenId",
              "type": "uint256"
            },
            {
              "internalType": "address payable",
              "name": "creator",
              "type": "address"
            },
            {
              "internalType": "address payable",
              "name": "seller",
              "type": "address"
            },
            {
              "internalType": "address payable",
              "name": "owner",
              "type": "address"
            },
            {
              "internalType": "uint256",
              "name": "price",
              "type": "uint256"
            },
            {
              "internalType": "bool",
              "name": "sold",
              "type": "bool"
            },
            {
              "internalType": "bool",
              "name": "canceled",
              "type": "bool"
            }
          ],
          "internalType": "struct Marketplace.MarketItem[]",
          "name": "",
          "type": "tuple[]"
        }
      ],
      "stateMutability": "view",
      "type": "function"
    },
    {
      "inputs": [
        {
          "internalType": "uint256",
          "name": "marketItemId",
          "type": "uint256"
        }
      ],
      "name": "fetchMarketItemById",
      "outputs": [
        {
          "components": [
            {
              "internalType": "uint256",
              "name": "marketItemId",
              "type": "uint256"
            },
            {
              "internalType": "address",
              "name": "nftContractAddress",
              "type": "address"
            },
            {
              "internalType": "uint256",
              "name": "tokenId",
              "type": "uint256"
            },
            {
              "internalType": "address payable",
              "name": "creator",
              "type": "address"
            },
            {
              "internalType": "address payable",
              "name": "seller",
              "type": "address"
            },
            {
              "internalType": "address payable",
              "name": "owner",
              "type": "address"
            },
            {
              "internalType": "uint256",
              "name": "price",
              "type": "uint256"
            },
            {
              "internalType": "bool",
              "name": "sold",
              "type": "bool"
            },
            {
              "internalType": "bool",
              "name": "canceled",
              "type": "bool"
            }
          ],
          "internalType": "struct Marketplace.MarketItem",
          "name": "",
          "type": "tuple"
        }
      ],
      "stateMutability": "view",
      "type": "function"
    },
    {
      "inputs": [
        {
          "internalType": "string",
          "name": "_addressProperty",
          "type": "string"
        }
      ],
      "name": "fetchMarketItemsByAddressProperty",
      "outputs": [
        {
          "components": [
            {
              "internalType": "uint256",
              "name": "marketItemId",
              "type": "uint256"
            },
            {
              "internalType": "address",
              "name": "nftContractAddress",
              "type": "address"
            },
            {
              "internalType": "uint256",
              "name": "tokenId",
              "type": "uint256"
            },
            {
              "internalType": "address payable",
              "name": "creator",
              "type": "address"
            },
            {
              "internalType": "address payable",
              "name": "seller",
              "type": "address"
            },
            {
              "internalType": "address payable",
              "name": "owner",
              "type": "address"
            },
            {
              "internalType": "uint256",
              "name": "price",
              "type": "uint256"
            },
            {
              "internalType": "bool",
              "name": "sold",
              "type": "bool"
            },
            {
              "internalType": "bool",
              "name": "canceled",
              "type": "bool"
            }
          ],
          "internalType": "struct Marketplace.MarketItem[]",
          "name": "",
          "type": "tuple[]"
        }
      ],
      "stateMutability": "view",
      "type": "function"
    },
    {
      "inputs": [
        {
          "internalType": "uint256",
          "name": "from",
          "type": "uint256"
        },
        {
          "internalType": "uint256",
          "name": "count",
          "type": "uint256"
        }
      ],
      "name": "fetchMarketItemsCustom",
      "outputs": [
        {
          "internalType": "uint256",
          "name": "",
          "type": "uint256"
        },
        {
          "components": [
            {
              "internalType": "uint256",
              "name": "marketItemId",
              "type": "uint256"
            },
            {
              "internalType": "address",
              "name": "nftContractAddress",
              "type": "address"
            },
            {
              "internalType": "uint256",
              "name": "tokenId",
              "type": "uint256"
            },
            {
              "internalType": "address payable",
              "name": "creator",
              "type": "address"
            },
            {
              "internalType": "address payable",
              "name": "seller",
              "type": "address"
            },
            {
              "internalType": "address payable",
              "name": "owner",
              "type": "address"
            },
            {
              "internalType": "uint256",
              "name": "price",
              "type": "uint256"
            },
            {
              "internalType": "bool",
              "name": "sold",
              "type": "bool"
            },
            {
              "internalType": "bool",
              "name": "canceled",
              "type": "bool"
            }
          ],
          "internalType": "struct Marketplace.MarketItem[]",
          "name": "",
          "type": "tuple[]"
        }
      ],
      "stateMutability": "view",
      "type": "function"
    },
    {
      "inputs": [],
      "name": "fetchOwnedMarketItems",
      "outputs": [
        {
          "components": [
            {
              "internalType": "uint256",
              "name": "marketItemId",
              "type": "uint256"
            },
            {
              "internalType": "address",
              "name": "nftContractAddress",
              "type": "address"
            },
            {
              "internalType": "uint256",
              "name": "tokenId",
              "type": "uint256"
            },
            {
              "internalType": "address payable",
              "name": "creator",
              "type": "address"
            },
            {
              "internalType": "address payable",
              "name": "seller",
              "type": "address"
            },
            {
              "internalType": "address payable",
              "name": "owner",
              "type": "address"
            },
            {
              "internalType": "uint256",
              "name": "price",
              "type": "uint256"
            },
            {
              "internalType": "bool",
              "name": "sold",
              "type": "bool"
            },
            {
              "internalType": "bool",
              "name": "canceled",
              "type": "bool"
            }
          ],
          "internalType": "struct Marketplace.MarketItem[]",
          "name": "",
          "type": "tuple[]"
        }
      ],
      "stateMutability": "view",
      "type": "function"
    },
    {
      "inputs": [],
      "name": "fetchSellingMarketItems",
      "outputs": [
        {
          "components": [
            {
              "internalType": "uint256",
              "name": "marketItemId",
              "type": "uint256"
            },
            {
              "internalType": "address",
              "name": "nftContractAddress",
              "type": "address"
            },
            {
              "internalType": "uint256",
              "name": "tokenId",
              "type": "uint256"
            },
            {
              "internalType": "address payable",
              "name": "creator",
              "type": "address"
            },
            {
              "internalType": "address payable",
              "name": "seller",
              "type": "address"
            },
            {
              "internalType": "address payable",
              "name": "owner",
              "type": "address"
            },
            {
              "internalType": "uint256",
              "name": "price",
              "type": "uint256"
            },
            {
              "internalType": "bool",
              "name": "sold",
              "type": "bool"
            },
            {
              "internalType": "bool",
              "name": "canceled",
              "type": "bool"
            }
          ],
          "internalType": "struct Marketplace.MarketItem[]",
          "name": "",
          "type": "tuple[]"
        }
      ],
      "stateMutability": "view",
      "type": "function"
    },
    {
      "inputs": [
        {
          "internalType": "uint256",
          "name": "tokenId",
          "type": "uint256"
        }
      ],
      "name": "getLatestMarketItemByTokenId",
      "outputs": [
        {
          "components": [
            {
              "internalType": "uint256",
              "name": "marketItemId",
              "type": "uint256"
            },
            {
              "internalType": "address",
              "name": "nftContractAddress",
              "type": "address"
            },
            {
              "internalType": "uint256",
              "name": "tokenId",
              "type": "uint256"
            },
            {
              "internalType": "address payable",
              "name": "creator",
              "type": "address"
            },
            {
              "internalType": "address payable",
              "name": "seller",
              "type": "address"
            },
            {
              "internalType": "address payable",
              "name": "owner",
              "type": "address"
            },
            {
              "internalType": "uint256",
              "name": "price",
              "type": "uint256"
            },
            {
              "internalType": "bool",
              "name": "sold",
              "type": "bool"
            },
            {
              "internalType": "bool",
              "name": "canceled",
              "type": "bool"
            }
          ],
          "internalType": "struct Marketplace.MarketItem",
          "name": "",
          "type": "tuple"
        },
        {
          "internalType": "bool",
          "name": "",
          "type": "bool"
        }
      ],
      "stateMutability": "view",
      "type": "function"
    },
    {
      "inputs": [],
      "name": "getListingFee",
      "outputs": [
        {
          "internalType": "uint256",
          "name": "",
          "type": "uint256"
        }
      ],
      "stateMutability": "view",
      "type": "function"
    }
  ],
  "bytecode": "0x608060405266470de4df82000060055534801561001b57600080fd5b50600160008190555033600460006101000a81548173ffffffffffffffffffffffffffffffffffffffff021916908373ffffffffffffffffffffffffffffffffffffffff16021790555061326a806100746000396000f3fe6080604052600436106100a75760003560e01c8063ad1477a911610064578063ad1477a9146101d9578063b3e3c42f14610216578063b8fe6abe14610232578063c23b139e1461025d578063cd90fdf414610279578063dfb6452b146102b6576100a7565b80630203c823146100ac5780630c16d754146100d75780630e01c969146101155780634cf2a0691461014057806358eb2df51461016b5780636f9b49201461019b575b600080fd5b3480156100b857600080fd5b506100c16102e1565b6040516100ce9190612be2565b60405180910390f35b3480156100e357600080fd5b506100fe60048036038101906100f99190612713565b610326565b60405161010c929190612d46565b60405180910390f35b34801561012157600080fd5b5061012a61064e565b6040516101379190612be2565b60405180910390f35b34801561014c57600080fd5b506101556109ae565b6040516101629190612be2565b60405180910390f35b6101856004803603810190610180919061265a565b6109f3565b6040516101929190612d2b565b60405180910390f35b3480156101a757600080fd5b506101c260048036038101906101bd91906126ea565b610e3a565b6040516101d0929190612d00565b60405180910390f35b3480156101e557600080fd5b5061020060048036038101906101fb91906126ea565b61107a565b60405161020d9190612ce4565b60405180910390f35b610230600480360381019061022b919061261e565b6112b2565b005b34801561023e57600080fd5b5061024761150c565b6040516102549190612d2b565b60405180910390f35b6102776004803603810190610272919061261e565b611516565b005b34801561028557600080fd5b506102a0600480360381019061029b91906126a9565b61182c565b6040516102ad9190612be2565b60405180910390f35b3480156102c257600080fd5b506102cb612032565b6040516102d89190612be2565b60405180910390f35b60606103216040518060400160405280600581526020017f6f776e657200000000000000000000000000000000000000000000000000000081525061182c565b905090565b6000606060006103366001612308565b9050600084866103469190612e2c565b8211610352578161035f565b848661035e9190612e2c565b5b90506000868261036f9190612e82565b905060008167ffffffffffffffff8111156103b3577f4e487b7100000000000000000000000000000000000000000000000000000000600052604160045260246000fd5b6040519080825280602002602001820160405280156103ec57816020015b6103d96124a6565b8152602001906001900390816103d15790505b50905060008890505b8381101561063c576000600660006001846104109190612e2c565b815260200190815260200160002060405180610120016040529081600082015481526020016001820160009054906101000a900473ffffffffffffffffffffffffffffffffffffffff1673ffffffffffffffffffffffffffffffffffffffff1673ffffffffffffffffffffffffffffffffffffffff168152602001600282015481526020016003820160009054906101000a900473ffffffffffffffffffffffffffffffffffffffff1673ffffffffffffffffffffffffffffffffffffffff1673ffffffffffffffffffffffffffffffffffffffff1681526020016004820160009054906101000a900473ffffffffffffffffffffffffffffffffffffffff1673ffffffffffffffffffffffffffffffffffffffff1673ffffffffffffffffffffffffffffffffffffffff1681526020016005820160009054906101000a900473ffffffffffffffffffffffffffffffffffffffff1673ffffffffffffffffffffffffffffffffffffffff1673ffffffffffffffffffffffffffffffffffffffff168152602001600682015481526020016007820160009054906101000a900460ff161515151581526020016007820160019054906101000a900460ff161515151581525050905080838b846105e69190612e82565b8151811061061d577f4e487b7100000000000000000000000000000000000000000000000000000000600052603260045260246000fd5b602002602001018190525050808061063490612fe3565b9150506103f5565b50838195509550505050509250929050565b6060600061065c6001612308565b9050600061066a6002612308565b905060006106786003612308565b905060008183856106899190612e82565b6106939190612e82565b905060008167ffffffffffffffff8111156106d7577f4e487b7100000000000000000000000000000000000000000000000000000000600052604160045260246000fd5b60405190808252806020026020018201604052801561071057816020015b6106fd6124a6565b8152602001906001900390816106f55790505b5090506000805b868110156109a1576000600660006001846107329190612e2c565b815260200190815260200160002060405180610120016040529081600082015481526020016001820160009054906101000a900473ffffffffffffffffffffffffffffffffffffffff1673ffffffffffffffffffffffffffffffffffffffff1673ffffffffffffffffffffffffffffffffffffffff168152602001600282015481526020016003820160009054906101000a900473ffffffffffffffffffffffffffffffffffffffff1673ffffffffffffffffffffffffffffffffffffffff1673ffffffffffffffffffffffffffffffffffffffff1681526020016004820160009054906101000a900473ffffffffffffffffffffffffffffffffffffffff1673ffffffffffffffffffffffffffffffffffffffff1673ffffffffffffffffffffffffffffffffffffffff1681526020016005820160009054906101000a900473ffffffffffffffffffffffffffffffffffffffff1673ffffffffffffffffffffffffffffffffffffffff1673ffffffffffffffffffffffffffffffffffffffff168152602001600682015481526020016007820160009054906101000a900460ff161515151581526020016007820160019054906101000a900460ff1615151515815250509050600073ffffffffffffffffffffffffffffffffffffffff168160a0015173ffffffffffffffffffffffffffffffffffffffff1614610938575061098e565b80848481518110610972577f4e487b7100000000000000000000000000000000000000000000000000000000600052603260045260246000fd5b602002602001018190525060018361098a9190612e2c565b9250505b808061099990612fe3565b915050610717565b5081965050505050505090565b60606109ee6040518060400160405280600681526020017f73656c6c6572000000000000000000000000000000000000000000000000000081525061182c565b905090565b600060026000541415610a3b576040517f08c379a0000000000000000000000000000000000000000000000000000000008152600401610a3290612ca4565b60405180910390fd5b600260008190555060008211610a86576040517f08c379a0000000000000000000000000000000000000000000000000000000008152600401610a7d90612cc4565b60405180910390fd5b610a906001612316565b6000610a9c6001612308565b905060008573ffffffffffffffffffffffffffffffffffffffff1663867d3397866040518263ffffffff1660e01b8152600401610ad99190612d2b565b60206040518083038186803b158015610af157600080fd5b505afa158015610b05573d6000803e3d6000fd5b505050506040513d601f19601f82011682018060405250810190610b2991906125f5565b90506040518061012001604052808381526020018773ffffffffffffffffffffffffffffffffffffffff1681526020018681526020018273ffffffffffffffffffffffffffffffffffffffff1681526020013373ffffffffffffffffffffffffffffffffffffffff168152602001600073ffffffffffffffffffffffffffffffffffffffff16815260200185815260200160001515815260200160001515815250600660008481526020019081526020016000206000820151816000015560208201518160010160006101000a81548173ffffffffffffffffffffffffffffffffffffffff021916908373ffffffffffffffffffffffffffffffffffffffff1602179055506040820151816002015560608201518160030160006101000a81548173ffffffffffffffffffffffffffffffffffffffff021916908373ffffffffffffffffffffffffffffffffffffffff16021790555060808201518160040160006101000a81548173ffffffffffffffffffffffffffffffffffffffff021916908373ffffffffffffffffffffffffffffffffffffffff16021790555060a08201518160050160006101000a81548173ffffffffffffffffffffffffffffffffffffffff021916908373ffffffffffffffffffffffffffffffffffffffff16021790555060c0820151816006015560e08201518160070160006101000a81548160ff0219169083151502179055506101008201518160070160016101000a81548160ff0219169083151502179055509050508573ffffffffffffffffffffffffffffffffffffffff166323b872dd3330886040518463ffffffff1660e01b8152600401610d9893929190612bab565b600060405180830381600087803b158015610db257600080fd5b505af1158015610dc6573d6000803e3d6000fd5b50505050848673ffffffffffffffffffffffffffffffffffffffff16837fa3b15201f5409f14cce6233dc60972278c313ff3ddbdee57ff092c0e95313526843360008a600080604051610e1e96959493929190612ae9565b60405180910390a4819250505060016000819055509392505050565b610e426124a6565b600080610e4f6001612308565b905060008190505b60008111156110625760006006600083815260200190815260200160002060405180610120016040529081600082015481526020016001820160009054906101000a900473ffffffffffffffffffffffffffffffffffffffff1673ffffffffffffffffffffffffffffffffffffffff1673ffffffffffffffffffffffffffffffffffffffff168152602001600282015481526020016003820160009054906101000a900473ffffffffffffffffffffffffffffffffffffffff1673ffffffffffffffffffffffffffffffffffffffff1673ffffffffffffffffffffffffffffffffffffffff1681526020016004820160009054906101000a900473ffffffffffffffffffffffffffffffffffffffff1673ffffffffffffffffffffffffffffffffffffffff1673ffffffffffffffffffffffffffffffffffffffff1681526020016005820160009054906101000a900473ffffffffffffffffffffffffffffffffffffffff1673ffffffffffffffffffffffffffffffffffffffff1673ffffffffffffffffffffffffffffffffffffffff168152602001600682015481526020016007820160009054906101000a900460ff161515151581526020016007820160019054906101000a900460ff161515151581525050905085816040015114611040575061104f565b80600194509450505050611075565b808061105a90612f88565b915050610e57565b5061106b6124a6565b8060009350935050505b915091565b6110826124a6565b600061108e6001612308565b90506000831180156110a05750808311155b6110df576040517f08c379a00000000000000000000000000000000000000000000000000000000081526004016110d690612c84565b60405180910390fd5b6006600084815260200190815260200160002060405180610120016040529081600082015481526020016001820160009054906101000a900473ffffffffffffffffffffffffffffffffffffffff1673ffffffffffffffffffffffffffffffffffffffff1673ffffffffffffffffffffffffffffffffffffffff168152602001600282015481526020016003820160009054906101000a900473ffffffffffffffffffffffffffffffffffffffff1673ffffffffffffffffffffffffffffffffffffffff1673ffffffffffffffffffffffffffffffffffffffff1681526020016004820160009054906101000a900473ffffffffffffffffffffffffffffffffffffffff1673ffffffffffffffffffffffffffffffffffffffff1673ffffffffffffffffffffffffffffffffffffffff1681526020016005820160009054906101000a900473ffffffffffffffffffffffffffffffffffffffff1673ffffffffffffffffffffffffffffffffffffffff1673ffffffffffffffffffffffffffffffffffffffff168152602001600682015481526020016007820160009054906101000a900460ff161515151581526020016007820160019054906101000a900460ff161515151581525050915050919050565b600260005414156112f8576040517f08c379a00000000000000000000000000000000000000000000000000000000081526004016112ef90612ca4565b60405180910390fd5b60026000819055506000600660008381526020019081526020016000206002015490506000811161135e576040517f08c379a000000000000000000000000000000000000000000000000000000000815260040161135590612c04565b60405180910390fd5b3373ffffffffffffffffffffffffffffffffffffffff166006600084815260200190815260200160002060040160009054906101000a900473ffffffffffffffffffffffffffffffffffffffff1673ffffffffffffffffffffffffffffffffffffffff1614611402576040517f08c379a00000000000000000000000000000000000000000000000000000000081526004016113f990612c64565b60405180910390fd5b8273ffffffffffffffffffffffffffffffffffffffff166323b872dd3033846040518463ffffffff1660e01b815260040161143f93929190612bab565b600060405180830381600087803b15801561145957600080fd5b505af115801561146d573d6000803e3d6000fd5b50505050336006600084815260200190815260200160002060050160006101000a81548173ffffffffffffffffffffffffffffffffffffffff021916908373ffffffffffffffffffffffffffffffffffffffff16021790555060016006600084815260200190815260200160002060070160016101000a81548160ff0219169083151502179055506114ff6003612316565b5060016000819055505050565b6000600554905090565b6002600054141561155c576040517f08c379a000000000000000000000000000000000000000000000000000000000815260040161155390612ca4565b60405180910390fd5b60026000819055506000600660008381526020019081526020016000206006015490506000600660008481526020019081526020016000206002015490508134146115dc576040517f08c379a00000000000000000000000000000000000000000000000000000000081526004016115d390612c24565b60405180910390fd5b336006600085815260200190815260200160002060050160006101000a81548173ffffffffffffffffffffffffffffffffffffffff021916908373ffffffffffffffffffffffffffffffffffffffff16021790555060016006600085815260200190815260200160002060070160006101000a81548160ff0219169083151502179055506006600084815260200190815260200160002060040160009054906101000a900473ffffffffffffffffffffffffffffffffffffffff1673ffffffffffffffffffffffffffffffffffffffff166108fc349081150290604051600060405180830381858888f193505050501580156116dc573d6000803e3d6000fd5b508373ffffffffffffffffffffffffffffffffffffffff166323b872dd3033846040518463ffffffff1660e01b815260040161171a93929190612bab565b600060405180830381600087803b15801561173457600080fd5b505af1158015611748573d6000803e3d6000fd5b505050506117566002612316565b808473ffffffffffffffffffffffffffffffffffffffff16847f803569a133313a21f841b500261ca01cef4b800edb6c1c7448fc6ad31f240a506006600088815260200190815260200160002060030160009054906101000a900473ffffffffffffffffffffffffffffffffffffffff166006600089815260200190815260200160002060040160009054906101000a900473ffffffffffffffffffffffffffffffffffffffff1633886001600060405161181696959493929190612b4a565b60405180910390a4505060016000819055505050565b606061186d826040518060400160405280600681526020017f73656c6c6572000000000000000000000000000000000000000000000000000081525061232c565b806118b357506118b2826040518060400160405280600581526020017f6f776e657200000000000000000000000000000000000000000000000000000081525061232c565b5b6118f2576040517f08c379a00000000000000000000000000000000000000000000000000000000081526004016118e990612c44565b60405180910390fd5b60006118fe6001612308565b905060008060005b83811015611b56576000600660006001846119219190612e2c565b815260200190815260200160002090506000611af58260405180610120016040529081600082015481526020016001820160009054906101000a900473ffffffffffffffffffffffffffffffffffffffff1673ffffffffffffffffffffffffffffffffffffffff1673ffffffffffffffffffffffffffffffffffffffff168152602001600282015481526020016003820160009054906101000a900473ffffffffffffffffffffffffffffffffffffffff1673ffffffffffffffffffffffffffffffffffffffff1673ffffffffffffffffffffffffffffffffffffffff1681526020016004820160009054906101000a900473ffffffffffffffffffffffffffffffffffffffff1673ffffffffffffffffffffffffffffffffffffffff1673ffffffffffffffffffffffffffffffffffffffff1681526020016005820160009054906101000a900473ffffffffffffffffffffffffffffffffffffffff1673ffffffffffffffffffffffffffffffffffffffff1673ffffffffffffffffffffffffffffffffffffffff168152602001600682015481526020016007820160009054906101000a900460ff161515151581526020016007820160019054906101000a900460ff16151515158152505089612385565b90503373ffffffffffffffffffffffffffffffffffffffff168173ffffffffffffffffffffffffffffffffffffffff1614611b31575050611b43565b600185611b3e9190612e2c565b945050505b8080611b4e90612fe3565b915050611906565b5060008267ffffffffffffffff811115611b99577f4e487b7100000000000000000000000000000000000000000000000000000000600052604160045260246000fd5b604051908082528060200260200182016040528015611bd257816020015b611bbf6124a6565b815260200190600190039081611bb75790505b50905060005b8481101561202557600060066000600184611bf39190612e2c565b815260200190815260200160002090506000611dc78260405180610120016040529081600082015481526020016001820160009054906101000a900473ffffffffffffffffffffffffffffffffffffffff1673ffffffffffffffffffffffffffffffffffffffff1673ffffffffffffffffffffffffffffffffffffffff168152602001600282015481526020016003820160009054906101000a900473ffffffffffffffffffffffffffffffffffffffff1673ffffffffffffffffffffffffffffffffffffffff1673ffffffffffffffffffffffffffffffffffffffff1681526020016004820160009054906101000a900473ffffffffffffffffffffffffffffffffffffffff1673ffffffffffffffffffffffffffffffffffffffff1673ffffffffffffffffffffffffffffffffffffffff1681526020016005820160009054906101000a900473ffffffffffffffffffffffffffffffffffffffff1673ffffffffffffffffffffffffffffffffffffffff1673ffffffffffffffffffffffffffffffffffffffff168152602001600682015481526020016007820160009054906101000a900460ff161515151581526020016007820160019054906101000a900460ff1615151515815250508a612385565b90503373ffffffffffffffffffffffffffffffffffffffff168173ffffffffffffffffffffffffffffffffffffffff1614611e03575050612012565b8160405180610120016040529081600082015481526020016001820160009054906101000a900473ffffffffffffffffffffffffffffffffffffffff1673ffffffffffffffffffffffffffffffffffffffff1673ffffffffffffffffffffffffffffffffffffffff168152602001600282015481526020016003820160009054906101000a900473ffffffffffffffffffffffffffffffffffffffff1673ffffffffffffffffffffffffffffffffffffffff1673ffffffffffffffffffffffffffffffffffffffff1681526020016004820160009054906101000a900473ffffffffffffffffffffffffffffffffffffffff1673ffffffffffffffffffffffffffffffffffffffff1673ffffffffffffffffffffffffffffffffffffffff1681526020016005820160009054906101000a900473ffffffffffffffffffffffffffffffffffffffff1673ffffffffffffffffffffffffffffffffffffffff1673ffffffffffffffffffffffffffffffffffffffff168152602001600682015481526020016007820160009054906101000a900460ff161515151581526020016007820160019054906101000a900460ff161515151581525050848681518110611ff5577f4e487b7100000000000000000000000000000000000000000000000000000000600052603260045260246000fd5b602002602001018190525060018561200d9190612e2c565b945050505b808061201d90612fe3565b915050611bd8565b5080945050505050919050565b606060006120406001612308565b905060008167ffffffffffffffff811115612084577f4e487b7100000000000000000000000000000000000000000000000000000000600052604160045260246000fd5b6040519080825280602002602001820160405280156120bd57816020015b6120aa6124a6565b8152602001906001900390816120a25790505b50905060005b828110156122ff576000600660006001846120de9190612e2c565b815260200190815260200160002060405180610120016040529081600082015481526020016001820160009054906101000a900473ffffffffffffffffffffffffffffffffffffffff1673ffffffffffffffffffffffffffffffffffffffff1673ffffffffffffffffffffffffffffffffffffffff168152602001600282015481526020016003820160009054906101000a900473ffffffffffffffffffffffffffffffffffffffff1673ffffffffffffffffffffffffffffffffffffffff1673ffffffffffffffffffffffffffffffffffffffff1681526020016004820160009054906101000a900473ffffffffffffffffffffffffffffffffffffffff1673ffffffffffffffffffffffffffffffffffffffff1673ffffffffffffffffffffffffffffffffffffffff1681526020016005820160009054906101000a900473ffffffffffffffffffffffffffffffffffffffff1673ffffffffffffffffffffffffffffffffffffffff1673ffffffffffffffffffffffffffffffffffffffff168152602001600682015481526020016007820160009054906101000a900460ff161515151581526020016007820160019054906101000a900460ff1615151515815250509050808383815181106122e0577f4e487b7100000000000000000000000000000000000000000000000000000000600052603260045260246000fd5b60200260200101819052505080806122f790612fe3565b9150506120c3565b50809250505090565b600081600001549050919050565b6001816000016000828254019250508190555050565b60008160405160200161233f9190612ad2565b60405160208183030381529060405280519060200120836040516020016123669190612ad2565b6040516020818303038152906040528051906020012014905092915050565b60006123c6826040518060400160405280600681526020017f73656c6c6572000000000000000000000000000000000000000000000000000081525061232c565b8061240c575061240b826040518060400160405280600581526020017f6f776e657200000000000000000000000000000000000000000000000000000081525061232c565b5b61244b576040517f08c379a000000000000000000000000000000000000000000000000000000000815260040161244290612c44565b60405180910390fd5b61248a826040518060400160405280600681526020017f73656c6c6572000000000000000000000000000000000000000000000000000081525061232c565b612498578260a0015161249e565b82608001515b905092915050565b60405180610120016040528060008152602001600073ffffffffffffffffffffffffffffffffffffffff16815260200160008152602001600073ffffffffffffffffffffffffffffffffffffffff168152602001600073ffffffffffffffffffffffffffffffffffffffff168152602001600073ffffffffffffffffffffffffffffffffffffffff168152602001600081526020016000151581526020016000151581525090565b600061256161255c84612d9b565b612d76565b90508281526020810184848401111561257957600080fd5b612584848285612f46565b509392505050565b60008135905061259b81613206565b92915050565b6000815190506125b081613206565b92915050565b600082601f8301126125c757600080fd5b81356125d784826020860161254e565b91505092915050565b6000813590506125ef8161321d565b92915050565b60006020828403121561260757600080fd5b6000612615848285016125a1565b91505092915050565b6000806040838503121561263157600080fd5b600061263f8582860161258c565b9250506020612650858286016125e0565b9150509250929050565b60008060006060848603121561266f57600080fd5b600061267d8682870161258c565b935050602061268e868287016125e0565b925050604061269f868287016125e0565b9150509250925092565b6000602082840312156126bb57600080fd5b600082013567ffffffffffffffff8111156126d557600080fd5b6126e1848285016125b6565b91505092915050565b6000602082840312156126fc57600080fd5b600061270a848285016125e0565b91505092915050565b6000806040838503121561272657600080fd5b6000612734858286016125e0565b9250506020612745858286016125e0565b9150509250929050565b600061275b8383612946565b6101208301905092915050565b61277181612f10565b82525050565b61278081612ec8565b82525050565b61278f81612eb6565b82525050565b61279e81612eb6565b82525050565b60006127af82612ddc565b6127b98185612dff565b93506127c483612dcc565b8060005b838110156127f55781516127dc888261274f565b97506127e783612df2565b9250506001810190506127c8565b5085935050505092915050565b61280b81612eda565b82525050565b61281a81612eda565b82525050565b600061282b82612de7565b6128358185612e21565b9350612845818560208601612f55565b80840191505092915050565b600061285e601883612e10565b91506128698261309b565b602082019050919050565b6000612881603383612e10565b915061288c826130c4565b604082019050919050565b60006128a4602583612e10565b91506128af82613113565b604082019050919050565b60006128c7601683612e10565b91506128d282613162565b602082019050919050565b60006128ea601083612e10565b91506128f58261318b565b602082019050919050565b600061290d601f83612e10565b9150612918826131b4565b602082019050919050565b6000612930601c83612e10565b915061293b826131dd565b602082019050919050565b6101208201600082015161295d6000850182612ab4565b5060208201516129706020850182612786565b5060408201516129836040850182612ab4565b5060608201516129966060850182612777565b5060808201516129a96080850182612777565b5060a08201516129bc60a0850182612777565b5060c08201516129cf60c0850182612ab4565b5060e08201516129e260e0850182612802565b506101008201516129f7610100850182612802565b50505050565b61012082016000820151612a146000850182612ab4565b506020820151612a276020850182612786565b506040820151612a3a6040850182612ab4565b506060820151612a4d6060850182612777565b506080820151612a606080850182612777565b5060a0820151612a7360a0850182612777565b5060c0820151612a8660c0850182612ab4565b5060e0820151612a9960e0850182612802565b50610100820151612aae610100850182612802565b50505050565b612abd81612f06565b82525050565b612acc81612f06565b82525050565b6000612ade8284612820565b915081905092915050565b600060c082019050612afe6000830189612768565b612b0b6020830188612768565b612b186040830187612768565b612b256060830186612ac3565b612b326080830185612811565b612b3f60a0830184612811565b979650505050505050565b600060c082019050612b5f6000830189612768565b612b6c6020830188612768565b612b796040830187612795565b612b866060830186612ac3565b612b936080830185612811565b612ba060a0830184612811565b979650505050505050565b6000606082019050612bc06000830186612795565b612bcd6020830185612795565b612bda6040830184612ac3565b949350505050565b60006020820190508181036000830152612bfc81846127a4565b905092915050565b60006020820190508181036000830152612c1d81612851565b9050919050565b60006020820190508181036000830152612c3d81612874565b9050919050565b60006020820190508181036000830152612c5d81612897565b9050919050565b60006020820190508181036000830152612c7d816128ba565b9050919050565b60006020820190508181036000830152612c9d816128dd565b9050919050565b60006020820190508181036000830152612cbd81612900565b9050919050565b60006020820190508181036000830152612cdd81612923565b9050919050565b600061012082019050612cfa60008301846129fd565b92915050565b600061014082019050612d1660008301856129fd565b612d24610120830184612811565b9392505050565b6000602082019050612d406000830184612ac3565b92915050565b6000604082019050612d5b6000830185612ac3565b8181036020830152612d6d81846127a4565b90509392505050565b6000612d80612d91565b9050612d8c8282612fb2565b919050565b6000604051905090565b600067ffffffffffffffff821115612db657612db561305b565b5b612dbf8261308a565b9050602081019050919050565b6000819050602082019050919050565b600081519050919050565b600081519050919050565b6000602082019050919050565b600082825260208201905092915050565b600082825260208201905092915050565b600081905092915050565b6000612e3782612f06565b9150612e4283612f06565b9250827fffffffffffffffffffffffffffffffffffffffffffffffffffffffffffffffff03821115612e7757612e7661302c565b5b828201905092915050565b6000612e8d82612f06565b9150612e9883612f06565b925082821015612eab57612eaa61302c565b5b828203905092915050565b6000612ec182612ee6565b9050919050565b6000612ed382612ee6565b9050919050565b60008115159050919050565b600073ffffffffffffffffffffffffffffffffffffffff82169050919050565b6000819050919050565b6000612f1b82612f22565b9050919050565b6000612f2d82612f34565b9050919050565b6000612f3f82612ee6565b9050919050565b82818337600083830152505050565b60005b83811015612f73578082015181840152602081019050612f58565b83811115612f82576000848401525b50505050565b6000612f9382612f06565b91506000821415612fa757612fa661302c565b5b600182039050919050565b612fbb8261308a565b810181811067ffffffffffffffff82111715612fda57612fd961305b565b5b80604052505050565b6000612fee82612f06565b91507fffffffffffffffffffffffffffffffffffffffffffffffffffffffffffffffff8214156130215761302061302c565b5b600182019050919050565b7f4e487b7100000000000000000000000000000000000000000000000000000000600052601160045260246000fd5b7f4e487b7100000000000000000000000000000000000000000000000000000000600052604160045260246000fd5b6000601f19601f8301169050919050565b7f4d61726b6574206974656d2068617320746f2065786973740000000000000000600082015250565b7f506c65617365207375626d6974207468652061736b696e67207072696365206960008201527f6e206f7264657220746f20636f6e74696e756500000000000000000000000000602082015250565b7f506172616d65746572206d757374206265202773656c6c657227206f7220276f60008201527f776e657227000000000000000000000000000000000000000000000000000000602082015250565b7f596f7520617265206e6f74207468652073656c6c657200000000000000000000600082015250565b7f4d7573742062652076616c696420696400000000000000000000000000000000600082015250565b7f5265656e7472616e637947756172643a207265656e7472616e742063616c6c00600082015250565b7f5072696365206d757374206265206174206c6561737420312077656900000000600082015250565b61320f81612eb6565b811461321a57600080fd5b50565b61322681612f06565b811461323157600080fd5b5056fea2646970667358221220f96379b9c1fe4dd9baffadf92386f768531f3e138dceb3259e0edb5f0c43cff564736f6c63430008040033",
  "linkReferences": {},
  "deployedLinkReferences": {}
}